{
  "contractName": "DeBordaVoteContract",
  "abi": [
    {
      "constant": false,
      "inputs": [],
      "name": "stopVote",
      "outputs": [],
      "payable": false,
      "stateMutability": "nonpayable",
      "type": "function",
      "signature": "0x2495c0ce"
    },
    {
      "constant": false,
      "inputs": [],
      "name": "startVote",
      "outputs": [],
      "payable": false,
      "stateMutability": "nonpayable",
      "type": "function",
      "signature": "0x4c0a6af0"
    },
    {
      "constant": true,
      "inputs": [],
      "name": "isUserAbleToVote",
      "outputs": [
        {
          "name": "",
          "type": "bool"
        }
      ],
      "payable": false,
      "stateMutability": "view",
      "type": "function",
      "signature": "0x59bf9ec6"
    },
    {
      "constant": true,
      "inputs": [
        {
          "name": "x",
          "type": "address"
        }
      ],
      "name": "fromAddressToString",
      "outputs": [
        {
          "name": "",
          "type": "string"
        }
      ],
      "payable": false,
      "stateMutability": "pure",
      "type": "function",
      "signature": "0x5a3e0328"
    },
    {
      "constant": true,
      "inputs": [],
      "name": "isVoteEnded",
      "outputs": [
        {
          "name": "",
          "type": "bool"
        }
      ],
      "payable": false,
      "stateMutability": "view",
      "type": "function",
      "signature": "0x789f0e36"
    },
    {
      "constant": true,
      "inputs": [],
      "name": "isOwner",
      "outputs": [
        {
          "name": "",
          "type": "bool"
        }
      ],
      "payable": false,
      "stateMutability": "view",
      "type": "function",
      "signature": "0x8f32d59b"
    },
    {
      "constant": true,
      "inputs": [
        {
          "name": "text",
          "type": "string"
        }
      ],
      "name": "isEmptyString",
      "outputs": [
        {
          "name": "",
          "type": "bool"
        }
      ],
      "payable": false,
      "stateMutability": "pure",
      "type": "function",
      "signature": "0xa45f379e"
    },
    {
      "constant": true,
      "inputs": [],
      "name": "isVoteStarted",
      "outputs": [
        {
          "name": "",
          "type": "bool"
        }
      ],
      "payable": false,
      "stateMutability": "view",
      "type": "function",
      "signature": "0xba7faf49"
    },
    {
      "constant": true,
      "inputs": [],
      "name": "hasUserVotedYet",
      "outputs": [
        {
          "name": "",
          "type": "bool"
        }
      ],
      "payable": false,
      "stateMutability": "view",
      "type": "function",
      "signature": "0xd37c900e"
    },
    {
      "constant": true,
      "inputs": [],
      "name": "isUserProposalYet",
      "outputs": [
        {
          "name": "",
          "type": "bool"
        }
      ],
      "payable": false,
      "stateMutability": "view",
      "type": "function",
      "signature": "0xdb4d5b48"
    },
    {
      "inputs": [],
      "payable": false,
      "stateMutability": "nonpayable",
      "type": "constructor",
      "signature": "constructor"
    },
    {
      "constant": false,
      "inputs": [
        {
          "name": "name",
          "type": "string"
        }
      ],
      "name": "candidateAsProposal",
      "outputs": [],
      "payable": false,
      "stateMutability": "nonpayable",
      "type": "function",
      "signature": "0xebb75b01"
    },
    {
      "constant": false,
      "inputs": [
        {
          "name": "toVoter",
          "type": "address"
        }
      ],
      "name": "giveRightToVote",
      "outputs": [],
      "payable": false,
      "stateMutability": "nonpayable",
      "type": "function",
      "signature": "0x9e7b8d61"
    },
    {
      "constant": false,
      "inputs": [
        {
          "name": "to",
          "type": "address"
        }
      ],
      "name": "delegate",
      "outputs": [],
      "payable": false,
      "stateMutability": "nonpayable",
      "type": "function",
      "signature": "0x5c19a95c"
    },
    {
      "constant": false,
      "inputs": [
        {
          "name": "proposalsInOrder",
          "type": "address[]"
        }
      ],
      "name": "vote",
      "outputs": [],
      "payable": false,
      "stateMutability": "nonpayable",
      "type": "function",
      "signature": "0xed081329"
    },
    {
      "constant": true,
      "inputs": [
        {
          "name": "proposalId",
          "type": "address"
        }
      ],
      "name": "getProposalData",
      "outputs": [
        {
          "name": "id",
          "type": "address"
        },
        {
          "name": "name",
          "type": "string"
        },
        {
          "name": "voteCount",
          "type": "uint256"
        }
      ],
      "payable": false,
      "stateMutability": "view",
      "type": "function",
      "signature": "0x351e1798"
    },
    {
      "constant": true,
      "inputs": [],
      "name": "getProposals",
      "outputs": [
        {
          "name": "proposals",
          "type": "address[]"
        }
      ],
      "payable": false,
      "stateMutability": "view",
      "type": "function",
      "signature": "0x62564c48"
    }
  ],
  "bytecode": "0x608060405260008060146101000a81548160ff021916908315150217905550635c5ed4f960015534801561003257600080fd5b50336000806101000a81548173ffffffffffffffffffffffffffffffffffffffff021916908373ffffffffffffffffffffffffffffffffffffffff1602179055506001600260008060009054906101000a900473ffffffffffffffffffffffffffffffffffffffff1673ffffffffffffffffffffffffffffffffffffffff1673ffffffffffffffffffffffffffffffffffffffff168152602001908152602001600020600001819055506001600260008060009054906101000a900473ffffffffffffffffffffffffffffffffffffffff1673ffffffffffffffffffffffffffffffffffffffff1673ffffffffffffffffffffffffffffffffffffffff16815260200190815260200160002060030160146101000a81548160ff021916908315150217905550611c30806101676000396000f3fe6080604052600436106100e6576000357c0100000000000000000000000000000000000000000000000000000000900463ffffffff1680632495c0ce146100eb578063351e1798146101025780634c0a6af01461020657806359bf9ec61461021d5780635a3e03281461024c5780635c19a95c1461031657806362564c4814610367578063789f0e36146103d35780638f32d59b146104025780639e7b8d6114610431578063a45f379e14610482578063ba7faf4914610562578063d37c900e14610591578063db4d5b48146105c0578063ebb75b01146105ef578063ed081329146106b7575b600080fd5b3480156100f757600080fd5b5061010061077c565b005b34801561010e57600080fd5b506101516004803603602081101561012557600080fd5b81019080803573ffffffffffffffffffffffffffffffffffffffff1690602001909291905050506107fc565b604051808473ffffffffffffffffffffffffffffffffffffffff1673ffffffffffffffffffffffffffffffffffffffff16815260200180602001838152602001828103825284818151815260200191508051906020019080838360005b838110156101c95780820151818401526020810190506101ae565b50505050905090810190601f1680156101f65780820380516001836020036101000a031916815260200191505b5094505050505060405180910390f35b34801561021257600080fd5b5061021b610a1e565b005b34801561022957600080fd5b50610232610a97565b604051808215151515815260200191505060405180910390f35b34801561025857600080fd5b5061029b6004803603602081101561026f57600080fd5b81019080803573ffffffffffffffffffffffffffffffffffffffff169060200190929190505050610b4d565b6040518080602001828103825283818151815260200191508051906020019080838360005b838110156102db5780820151818401526020810190506102c0565b50505050905090810190601f1680156103085780820380516001836020036101000a031916815260200191505b509250505060405180910390f35b34801561032257600080fd5b506103656004803603602081101561033957600080fd5b81019080803573ffffffffffffffffffffffffffffffffffffffff169060200190929190505050610c38565b005b34801561037357600080fd5b5061037c6110d3565b6040518080602001828103825283818151815260200191508051906020019060200280838360005b838110156103bf5780820151818401526020810190506103a4565b505050509050019250505060405180910390f35b3480156103df57600080fd5b506103e8611161565b604051808215151515815260200191505060405180910390f35b34801561040e57600080fd5b5061041761116d565b604051808215151515815260200191505060405180910390f35b34801561043d57600080fd5b506104806004803603602081101561045457600080fd5b81019080803573ffffffffffffffffffffffffffffffffffffffff1690602001909291905050506111c4565b005b34801561048e57600080fd5b50610548600480360360208110156104a557600080fd5b81019080803590602001906401000000008111156104c257600080fd5b8201836020820111156104d457600080fd5b803590602001918460018302840111640100000000831117156104f657600080fd5b91908080601f016020809104026020016040519081016040528093929190818152602001838380828437600081840152601f19601f820116905080830192505050505050509192919290505050611323565b604051808215151515815260200191505060405180910390f35b34801561056e57600080fd5b50610577611330565b604051808215151515815260200191505060405180910390f35b34801561059d57600080fd5b506105a6611346565b604051808215151515815260200191505060405180910390f35b3480156105cc57600080fd5b506105d561139d565b604051808215151515815260200191505060405180910390f35b3480156105fb57600080fd5b506106b56004803603602081101561061257600080fd5b810190808035906020019064010000000081111561062f57600080fd5b82018360208201111561064157600080fd5b8035906020019184600183028401116401000000008311171561066357600080fd5b91908080601f016020809104026020016040519081016040528093929190818152602001838380828437600081840152601f19601f820116905080830192505050505050509192919290505050611488565b005b3480156106c357600080fd5b5061077a600480360360208110156106da57600080fd5b81019080803590602001906401000000008111156106f757600080fd5b82018360208201111561070957600080fd5b8035906020019184602083028401116401000000008311171561072b57600080fd5b919080806020026020016040519081016040528093929190818152602001838360200280828437600081840152601f19601f8201169050808301925050505050505091929192905050506116b6565b005b6000809054906101000a900473ffffffffffffffffffffffffffffffffffffffff1673ffffffffffffffffffffffffffffffffffffffff163373ffffffffffffffffffffffffffffffffffffffff161415156107d7576107fa565b600060018190555060008060146101000a81548160ff0219169083151502179055505b565b600060606000836108e6600360008373ffffffffffffffffffffffffffffffffffffffff1673ffffffffffffffffffffffffffffffffffffffff1681526020019081526020016000206001018054600181600116156101000203166002900480601f0160208091040260200160405190810160405280929190818152602001828054600181600116156101000203166002900480156108dc5780601f106108b1576101008083540402835291602001916108dc565b820191906000526020600020905b8154815290600101906020018083116108bf57829003601f168201915b5050505050611323565b156108f057610a16565b849350600360008673ffffffffffffffffffffffffffffffffffffffff1673ffffffffffffffffffffffffffffffffffffffff1681526020019081526020016000206001018054600181600116156101000203166002900480601f0160208091040260200160405190810160405280929190818152602001828054600181600116156101000203166002900480156109c95780601f1061099e576101008083540402835291602001916109c9565b820191906000526020600020905b8154815290600101906020018083116109ac57829003601f168201915b50505050509250600360008673ffffffffffffffffffffffffffffffffffffffff1673ffffffffffffffffffffffffffffffffffffffff1681526020019081526020016000206000015491505b509193909250565b6000809054906101000a900473ffffffffffffffffffffffffffffffffffffffff1673ffffffffffffffffffffffffffffffffffffffff163373ffffffffffffffffffffffffffffffffffffffff16141515610a7957610a95565b6001600060146101000a81548160ff0219169083151502179055505b565b6000600260003373ffffffffffffffffffffffffffffffffffffffff1673ffffffffffffffffffffffffffffffffffffffff16815260200190815260200160002060030160149054906101000a900460ff168015610b48575060001515600260003373ffffffffffffffffffffffffffffffffffffffff1673ffffffffffffffffffffffffffffffffffffffff16815260200190815260200160002060010160009054906101000a900460ff161515145b905090565b60608060146040519080825280601f01601f191660200182016040528015610b845781602001600182028038833980820191505090505b50905060008090505b6014811015610c2e578060130360080260020a8473ffffffffffffffffffffffffffffffffffffffff16811515610bc057fe5b047f0100000000000000000000000000000000000000000000000000000000000000028282815181101515610bf157fe5b9060200101907effffffffffffffffffffffffffffffffffffffffffffffffffffffffffffff1916908160001a9053508080600101915050610b8d565b5080915050919050565b3360001515600060149054906101000a900460ff1615151480610c5c575042600154105b80610cb35750600260008273ffffffffffffffffffffffffffffffffffffffff1673ffffffffffffffffffffffffffffffffffffffff16815260200190815260200160002060010160009054906101000a900460ff165b80610d0b5750600260008273ffffffffffffffffffffffffffffffffffffffff1673ffffffffffffffffffffffffffffffffffffffff16815260200190815260200160002060030160149054906101000a900460ff16155b15610d15576110cf565b6000600260003373ffffffffffffffffffffffffffffffffffffffff1673ffffffffffffffffffffffffffffffffffffffff16815260200190815260200160002090505b600073ffffffffffffffffffffffffffffffffffffffff16600260008573ffffffffffffffffffffffffffffffffffffffff1673ffffffffffffffffffffffffffffffffffffffff16815260200190815260200160002060030160009054906101000a900473ffffffffffffffffffffffffffffffffffffffff1673ffffffffffffffffffffffffffffffffffffffff1614158015610e8657503373ffffffffffffffffffffffffffffffffffffffff16600260008573ffffffffffffffffffffffffffffffffffffffff1673ffffffffffffffffffffffffffffffffffffffff16815260200190815260200160002060030160009054906101000a900473ffffffffffffffffffffffffffffffffffffffff1673ffffffffffffffffffffffffffffffffffffffff1614155b15610ef557600260008473ffffffffffffffffffffffffffffffffffffffff1673ffffffffffffffffffffffffffffffffffffffff16815260200190815260200160002060030160009054906101000a900473ffffffffffffffffffffffffffffffffffffffff169250610d59565b3373ffffffffffffffffffffffffffffffffffffffff168373ffffffffffffffffffffffffffffffffffffffff161415610f2f57506110ce565b60018160010160006101000a81548160ff021916908315150217905550828160030160006101000a81548173ffffffffffffffffffffffffffffffffffffffff021916908373ffffffffffffffffffffffffffffffffffffffff1602179055506000600260008573ffffffffffffffffffffffffffffffffffffffff1673ffffffffffffffffffffffffffffffffffffffff16815260200190815260200160002090508060010160009054906101000a900460ff16156110b45760008090505b81600201805490508160ff1610156110ae5782600001548160ff168360020180549050030260036000846002018460ff1681548110151561102c57fe5b9060005260206000200160009054906101000a900473ffffffffffffffffffffffffffffffffffffffff1673ffffffffffffffffffffffffffffffffffffffff1673ffffffffffffffffffffffffffffffffffffffff168152602001908152602001600020600001600082825401925050819055508080600101915050610fef565b506110cb565b816000015481600001600082825401925050819055505b50505b5b5050565b6060600480548060200260200160405190810160405280929190818152602001828054801561115757602002820191906000526020600020905b8160009054906101000a900473ffffffffffffffffffffffffffffffffffffffff1673ffffffffffffffffffffffffffffffffffffffff168152602001906001019080831161110d575b5050505050905090565b60006001544211905090565b60008060009054906101000a900473ffffffffffffffffffffffffffffffffffffffff1673ffffffffffffffffffffffffffffffffffffffff163373ffffffffffffffffffffffffffffffffffffffff1614905090565b6000809054906101000a900473ffffffffffffffffffffffffffffffffffffffff1673ffffffffffffffffffffffffffffffffffffffff163373ffffffffffffffffffffffffffffffffffffffff1614151561121f57611320565b80600260008273ffffffffffffffffffffffffffffffffffffffff1673ffffffffffffffffffffffffffffffffffffffff16815260200190815260200160002060010160009054906101000a900460ff161561127a5761131e565b6001600260008473ffffffffffffffffffffffffffffffffffffffff1673ffffffffffffffffffffffffffffffffffffffff168152602001908152602001600020600001819055506001600260008473ffffffffffffffffffffffffffffffffffffffff1673ffffffffffffffffffffffffffffffffffffffff16815260200190815260200160002060030160146101000a81548160ff0219169083151502179055505b505b50565b6000808251149050919050565b60008060149054906101000a900460ff16905090565b6000600260003373ffffffffffffffffffffffffffffffffffffffff1673ffffffffffffffffffffffffffffffffffffffff16815260200190815260200160002060010160009054906101000a900460ff16905090565b6000611482600360003373ffffffffffffffffffffffffffffffffffffffff1673ffffffffffffffffffffffffffffffffffffffff1681526020019081526020016000206001018054600181600116156101000203166002900480601f0160208091040260200160405190810160405280929190818152602001828054600181600116156101000203166002900480156114785780601f1061144d57610100808354040283529160200191611478565b820191906000526020600020905b81548152906001019060200180831161145b57829003601f168201915b5050505050611323565b15905090565b600060149054906101000a900460ff1680611589575060001515611585600360003373ffffffffffffffffffffffffffffffffffffffff1673ffffffffffffffffffffffffffffffffffffffff1681526020019081526020016000206001018054600181600116156101000203166002900480601f01602080910402602001604051908101604052809291908181526020018280546001816001161561010002031660029004801561157b5780601f106115505761010080835404028352916020019161157b565b820191906000526020600020905b81548152906001019060200180831161155e57829003601f168201915b5050505050611323565b1515145b15611593576116b3565b60043390806001815401808255809150509060018203906000526020600020016000909192909190916101000a81548173ffffffffffffffffffffffffffffffffffffffff021916908373ffffffffffffffffffffffffffffffffffffffff160217905550506000600360003373ffffffffffffffffffffffffffffffffffffffff1673ffffffffffffffffffffffffffffffffffffffff1681526020019081526020016000206000018190555061164a81611323565b1561165b5761165833610b4d565b90505b80600360003373ffffffffffffffffffffffffffffffffffffffff1673ffffffffffffffffffffffffffffffffffffffff16815260200190815260200160002060010190805190602001906116b1929190611a92565b505b50565b3360001515600060149054906101000a900460ff16151514806116da575042600154105b806117315750600260008273ffffffffffffffffffffffffffffffffffffffff1673ffffffffffffffffffffffffffffffffffffffff16815260200190815260200160002060010160009054906101000a900460ff165b806117895750600260008273ffffffffffffffffffffffffffffffffffffffff1673ffffffffffffffffffffffffffffffffffffffff16815260200190815260200160002060030160149054906101000a900460ff16155b1561179357611a8e565b8160048054905081511415156117a857611a8c565b60008090505b81518160ff16101561197a57600080905060008090505b83518160ff16101561184f57838360ff168151811015156117e257fe5b9060200190602002015173ffffffffffffffffffffffffffffffffffffffff16848260ff1681518110151561181357fe5b9060200190602002015173ffffffffffffffffffffffffffffffffffffffff1614156118425781806001019250505b80806001019150506117c5565b5060018160ff161115611863575050611a8c565b61196060036000858560ff1681518110151561187b57fe5b9060200190602002015173ffffffffffffffffffffffffffffffffffffffff1673ffffffffffffffffffffffffffffffffffffffff1681526020019081526020016000206001018054600181600116156101000203166002900480601f0160208091040260200160405190810160405280929190818152602001828054600181600116156101000203166002900480156119565780601f1061192b57610100808354040283529160200191611956565b820191906000526020600020905b81548152906001019060200180831161193957829003601f168201915b5050505050611323565b1561196c575050611a8c565b5080806001019150506117ae565b506000600260003373ffffffffffffffffffffffffffffffffffffffff1673ffffffffffffffffffffffffffffffffffffffff168152602001908152602001600020905060018160010160006101000a81548160ff021916908315150217905550838160020190805190602001906119f3929190611b12565b5060008090505b84518160ff161015611a895781600001548160ff168651030260036000878460ff16815181101515611a2857fe5b9060200190602002015173ffffffffffffffffffffffffffffffffffffffff1673ffffffffffffffffffffffffffffffffffffffff1681526020019081526020016000206000016000828254019250508190555080806001019150506119fa565b50505b505b5050565b828054600181600116156101000203166002900490600052602060002090601f016020900481019282601f10611ad357805160ff1916838001178555611b01565b82800160010185558215611b01579182015b82811115611b00578251825591602001919060010190611ae5565b5b509050611b0e9190611b9c565b5090565b828054828255906000526020600020908101928215611b8b579160200282015b82811115611b8a5782518260006101000a81548173ffffffffffffffffffffffffffffffffffffffff021916908373ffffffffffffffffffffffffffffffffffffffff16021790555091602001919060010190611b32565b5b509050611b989190611bc1565b5090565b611bbe91905b80821115611bba576000816000905550600101611ba2565b5090565b90565b611c0191905b80821115611bfd57600081816101000a81549073ffffffffffffffffffffffffffffffffffffffff021916905550600101611bc7565b5090565b9056fea165627a7a7230582052902a5e426c6a4e7e80289934241757b2eac26aac9befe25c6c0a456daa79f10029",
  "source": "pragma solidity >=0.5 <0.6.0;\n\nimport \"./VoteContractInterface.sol\";\n\ncontract DeBordaVoteContract is VoteContractInterface {\n\n    // Just setting owner and giving him vote rights\n    constructor() public {\n        owner = msg.sender;\n        voters[owner].weight = 1;\n        voters[owner].canVote = true;\n    }\n\n    // Propose itself as proposal\n    // $(name) may be empty but would be replace by address\n    function candidateAsProposal(string memory name) mayBeCandidate public {\n        proposalsAddresses.push(msg.sender);\n        proposals[msg.sender].voteCount = 0;\n        if (isEmptyString(name)) {\n            name = fromAddressToString(msg.sender);\n        }\n        proposals[msg.sender].name = name;\n    }\n\n    // Give $(toVoter) the right to vote.\n    // May only be called by $(owner).\n    function giveRightToVote(address toVoter) public onlyOwner hasNotVotedYet(toVoter) {\n        voters[toVoter].weight = 1;\n        voters[toVoter].canVote = true;\n    }\n\n    // Delegate sender's vote to the voter $(to).\n    function delegate(address to) public mayVote(msg.sender) {\n        Voter storage sender = voters[msg.sender];\n\n        while (voters[to].delegate != address(0) && voters[to].delegate != msg.sender)\n            to = voters[to].delegate;\n        if (to == msg.sender) return;\n        sender.voted = true;\n        sender.delegate = to;\n        Voter storage delegateTo = voters[to];\n        if (delegateTo.voted) {\n            for (uint8 i = 0; i < delegateTo.vote.length; i++) {\n                proposals[delegateTo.vote[i]].voteCount += (delegateTo.vote.length - i) * sender.weight;\n            }\n        }\n        else {\n            delegateTo.weight += sender.weight;\n        }\n    }\n\n    // Vote for proposals\n    function vote(address[] memory proposalsInOrder) public mayVote(msg.sender) arePossibleProposals(proposalsInOrder) {\n        Voter storage sender = voters[msg.sender];\n        sender.voted = true;\n        sender.vote = proposalsInOrder;\n        for (uint8 i = 0; i < proposalsInOrder.length; i++) {\n            proposals[proposalsInOrder[i]].voteCount += (proposalsInOrder.length - i) * sender.weight;\n        }\n    }\n\n    // Retrieve data for one proposal $(proposalId)\n    function getProposalData(address proposalId) public view isOneOfPossibleProposal(proposalId) returns (address id, string memory name, uint voteCount) {\n        id = proposalId;\n        name = proposals[proposalId].name;\n        voteCount = proposals[proposalId].voteCount;\n    }\n\n    // Return all proposals address\n    function getProposals() public view returns (address[] memory proposals) {\n        return proposalsAddresses;\n    }\n}\n",
  "sourcePath": "/Users/thomasecalle/Development/blockchain/blockchain_vote_dapp/contracts/DeBordaVoteContract.sol",
  "compiler": {
    "name": "solc",
    "version": "0.5.0+commit.1d4f565a.Emscripten.clang"
  },
  "schemaVersion": "3.0.1",
  "updatedAt": "2019-01-23T19:25:14.934Z",
  "devdoc": {
    "methods": {}
  },
  "userdoc": {
    "methods": {
      "fromAddressToString(address)": {
        "notice": "//////////////////////////////////////////"
      },
      "stopVote()": {
        "notice": "//////////////////////////////////////////"
      }
    }
  }
}