{
  "contractName": "DeBordaVoteContract",
  "abi": [
    {
      "constant": false,
      "inputs": [],
      "name": "startVote",
      "outputs": [],
      "payable": false,
      "stateMutability": "nonpayable",
      "type": "function"
    },
    {
      "constant": true,
      "inputs": [
        {
          "name": "x",
          "type": "address"
        }
      ],
      "name": "fromAddressToString",
      "outputs": [
        {
          "name": "",
          "type": "string"
        }
      ],
      "payable": false,
      "stateMutability": "pure",
      "type": "function"
    },
    {
      "constant": true,
      "inputs": [
        {
          "name": "text",
          "type": "string"
        }
      ],
      "name": "isEmptyString",
      "outputs": [
        {
          "name": "",
          "type": "bool"
        }
      ],
      "payable": false,
      "stateMutability": "pure",
      "type": "function"
    },
    {
      "constant": true,
      "inputs": [],
      "name": "isVoteStarted",
      "outputs": [
        {
          "name": "",
          "type": "bool"
        }
      ],
      "payable": false,
      "stateMutability": "view",
      "type": "function"
    },
    {
      "inputs": [],
      "payable": false,
      "stateMutability": "nonpayable",
      "type": "constructor"
    },
    {
      "constant": false,
      "inputs": [
        {
          "name": "name",
          "type": "string"
        }
      ],
      "name": "candidateAsProposal",
      "outputs": [],
      "payable": false,
      "stateMutability": "nonpayable",
      "type": "function"
    },
    {
      "constant": false,
      "inputs": [
        {
          "name": "toVoter",
          "type": "address"
        }
      ],
      "name": "giveRightToVote",
      "outputs": [],
      "payable": false,
      "stateMutability": "nonpayable",
      "type": "function"
    },
    {
      "constant": false,
      "inputs": [
        {
          "name": "to",
          "type": "address"
        }
      ],
      "name": "delegate",
      "outputs": [],
      "payable": false,
      "stateMutability": "nonpayable",
      "type": "function"
    },
    {
      "constant": false,
      "inputs": [
        {
          "name": "proposalsInOrder",
          "type": "address[]"
        }
      ],
      "name": "vote",
      "outputs": [],
      "payable": false,
      "stateMutability": "nonpayable",
      "type": "function"
    },
    {
      "constant": true,
      "inputs": [
        {
          "name": "proposalId",
          "type": "address"
        }
      ],
      "name": "getProposalData",
      "outputs": [
        {
          "name": "id",
          "type": "address"
        },
        {
          "name": "name",
          "type": "string"
        },
        {
          "name": "voteCount",
          "type": "uint256"
        }
      ],
      "payable": false,
      "stateMutability": "view",
      "type": "function"
    },
    {
      "constant": true,
      "inputs": [],
      "name": "getProposals",
      "outputs": [
        {
          "name": "proposals",
          "type": "address[]"
        }
      ],
      "payable": false,
      "stateMutability": "view",
      "type": "function"
    },
    {
      "constant": true,
      "inputs": [],
      "name": "winningProposal",
      "outputs": [
        {
          "name": "winningProposalAddress",
          "type": "address"
        },
        {
          "name": "winningProposalName",
          "type": "string"
        },
        {
          "name": "winningProposalVoteCount",
          "type": "uint256"
        }
      ],
      "payable": false,
      "stateMutability": "view",
      "type": "function"
    }
  ],
  "bytecode": "0x608060405260008060146101000a81548160ff02191690831515021790555034801561002a57600080fd5b50336000806101000a81548173ffffffffffffffffffffffffffffffffffffffff021916908373ffffffffffffffffffffffffffffffffffffffff16021790555060018060008060009054906101000a900473ffffffffffffffffffffffffffffffffffffffff1673ffffffffffffffffffffffffffffffffffffffff1673ffffffffffffffffffffffffffffffffffffffff1681526020019081526020016000206000018190555060018060008060009054906101000a900473ffffffffffffffffffffffffffffffffffffffff1673ffffffffffffffffffffffffffffffffffffffff1673ffffffffffffffffffffffffffffffffffffffff16815260200190815260200160002060030160146101000a81548160ff0219169083151502179055506119bb8061015d6000396000f3006080604052600436106100af576000357c0100000000000000000000000000000000000000000000000000000000900463ffffffff168063351e1798146100b45780634c0a6af0146101aa5780635a3e0328146101c15780635c19a95c1461027d578063609ff1bd146102c057806362564c481461038a5780639e7b8d61146103f6578063a45f379e14610439578063ba7faf49146104ba578063ebb75b01146104e9578063ed08132914610552575b600080fd5b3480156100c057600080fd5b506100f5600480360381019080803573ffffffffffffffffffffffffffffffffffffffff1690602001909291905050506105b8565b604051808473ffffffffffffffffffffffffffffffffffffffff1673ffffffffffffffffffffffffffffffffffffffff16815260200180602001838152602001828103825284818151815260200191508051906020019080838360005b8381101561016d578082015181840152602081019050610152565b50505050905090810190601f16801561019a5780820380516001836020036101000a031916815260200191505b5094505050505060405180910390f35b3480156101b657600080fd5b506101bf6107da565b005b3480156101cd57600080fd5b50610202600480360381019080803573ffffffffffffffffffffffffffffffffffffffff169060200190929190505050610853565b6040518080602001828103825283818151815260200191508051906020019080838360005b83811015610242578082015181840152602081019050610227565b50505050905090810190601f16801561026f5780820380516001836020036101000a031916815260200191505b509250505060405180910390f35b34801561028957600080fd5b506102be600480360381019080803573ffffffffffffffffffffffffffffffffffffffff16906020019092919050505061093f565b005b3480156102cc57600080fd5b506102d5610e29565b604051808473ffffffffffffffffffffffffffffffffffffffff1673ffffffffffffffffffffffffffffffffffffffff16815260200180602001838152602001828103825284818151815260200191508051906020019080838360005b8381101561034d578082015181840152602081019050610332565b50505050905090810190601f16801561037a5780820380516001836020036101000a031916815260200191505b5094505050505060405180910390f35b34801561039657600080fd5b5061039f611013565b6040518080602001828103825283818151815260200191508051906020019060200280838360005b838110156103e25780820151818401526020810190506103c7565b505050509050019250505060405180910390f35b34801561040257600080fd5b50610437600480360381019080803573ffffffffffffffffffffffffffffffffffffffff1690602001909291905050506110a1565b005b34801561044557600080fd5b506104a0600480360381019080803590602001908201803590602001908080601f01602080910402602001604051908101604052809392919081815260200183838082843782019150505050505091929192905050506111fe565b604051808215151515815260200191505060405180910390f35b3480156104c657600080fd5b506104cf61120b565b604051808215151515815260200191505060405180910390f35b3480156104f557600080fd5b50610550600480360381019080803590602001908201803590602001908080601f0160208091040260200160405190810160405280939291908181526020018383808284378201915050505050509192919290505050611221565b005b34801561055e57600080fd5b506105b66004803603810190808035906020019082018035906020019080806020026020016040519081016040528093929190818152602001838360200280828437820191505050505050919291929050505061144f565b005b600060606000836106a2600260008373ffffffffffffffffffffffffffffffffffffffff1673ffffffffffffffffffffffffffffffffffffffff1681526020019081526020016000206001018054600181600116156101000203166002900480601f0160208091040260200160405190810160405280929190818152602001828054600181600116156101000203166002900480156106985780601f1061066d57610100808354040283529160200191610698565b820191906000526020600020905b81548152906001019060200180831161067b57829003601f168201915b50505050506111fe565b156106ac576107d2565b849350600260008673ffffffffffffffffffffffffffffffffffffffff1673ffffffffffffffffffffffffffffffffffffffff1681526020019081526020016000206001018054600181600116156101000203166002900480601f0160208091040260200160405190810160405280929190818152602001828054600181600116156101000203166002900480156107855780601f1061075a57610100808354040283529160200191610785565b820191906000526020600020905b81548152906001019060200180831161076857829003601f168201915b50505050509250600260008673ffffffffffffffffffffffffffffffffffffffff1673ffffffffffffffffffffffffffffffffffffffff1681526020019081526020016000206000015491505b509193909250565b6000809054906101000a900473ffffffffffffffffffffffffffffffffffffffff1673ffffffffffffffffffffffffffffffffffffffff163373ffffffffffffffffffffffffffffffffffffffff1614151561083557610851565b6001600060146101000a81548160ff0219169083151502179055505b565b606080600060146040519080825280601f01601f19166020018201604052801561088c5781602001602082028038833980820191505090505b509150600090505b6014811015610935578060130360080260020a8473ffffffffffffffffffffffffffffffffffffffff168115156108c757fe5b047f01000000000000000000000000000000000000000000000000000000000000000282828151811015156108f857fe5b9060200101907effffffffffffffffffffffffffffffffffffffffffffffffffffffffffffff1916908160001a9053508080600101915050610894565b8192505050919050565b60008060003360001515600060149054906101000a900460ff16151514806109b35750600160008273ffffffffffffffffffffffffffffffffffffffff1673ffffffffffffffffffffffffffffffffffffffff16815260200190815260200160002060010160009054906101000a900460ff165b80610a0b5750600160008273ffffffffffffffffffffffffffffffffffffffff1673ffffffffffffffffffffffffffffffffffffffff16815260200190815260200160002060030160149054906101000a900460ff16155b15610a1557610e22565b600160003373ffffffffffffffffffffffffffffffffffffffff1673ffffffffffffffffffffffffffffffffffffffff16815260200190815260200160002093505b600073ffffffffffffffffffffffffffffffffffffffff16600160008773ffffffffffffffffffffffffffffffffffffffff1673ffffffffffffffffffffffffffffffffffffffff16815260200190815260200160002060030160009054906101000a900473ffffffffffffffffffffffffffffffffffffffff1673ffffffffffffffffffffffffffffffffffffffff1614158015610b8457503373ffffffffffffffffffffffffffffffffffffffff16600160008773ffffffffffffffffffffffffffffffffffffffff1673ffffffffffffffffffffffffffffffffffffffff16815260200190815260200160002060030160009054906101000a900473ffffffffffffffffffffffffffffffffffffffff1673ffffffffffffffffffffffffffffffffffffffff1614155b15610bf357600160008673ffffffffffffffffffffffffffffffffffffffff1673ffffffffffffffffffffffffffffffffffffffff16815260200190815260200160002060030160009054906101000a900473ffffffffffffffffffffffffffffffffffffffff169450610a57565b3373ffffffffffffffffffffffffffffffffffffffff168573ffffffffffffffffffffffffffffffffffffffff161480610c80575060001515600160008773ffffffffffffffffffffffffffffffffffffffff1673ffffffffffffffffffffffffffffffffffffffff16815260200190815260200160002060030160149054906101000a900460ff161515145b15610c8a57610e21565b60018460010160006101000a81548160ff021916908315150217905550848460030160006101000a81548173ffffffffffffffffffffffffffffffffffffffff021916908373ffffffffffffffffffffffffffffffffffffffff160217905550600160008673ffffffffffffffffffffffffffffffffffffffff1673ffffffffffffffffffffffffffffffffffffffff16815260200190815260200160002092508260010160009054906101000a900460ff1615610e0957600091505b82600201805490508260ff161015610e045783600001548260ff16600380549050030260026000856002018560ff16815481101515610d8257fe5b9060005260206000200160009054906101000a900473ffffffffffffffffffffffffffffffffffffffff1673ffffffffffffffffffffffffffffffffffffffff1673ffffffffffffffffffffffffffffffffffffffff168152602001908152602001600020600001600082825401925050819055508180600101925050610d47565b610e20565b836000015483600001600082825401925050819055505b5b5b5050505050565b6000606060008060008060009250600091505b6003805490508260ff16101561100b5760038260ff16815481101515610e5e57fe5b9060005260206000200160009054906101000a900473ffffffffffffffffffffffffffffffffffffffff16905082600260008373ffffffffffffffffffffffffffffffffffffffff1673ffffffffffffffffffffffffffffffffffffffff168152602001908152602001600020600001541115610ffe57600260008273ffffffffffffffffffffffffffffffffffffffff1673ffffffffffffffffffffffffffffffffffffffff168152602001908152602001600020600001549250809550600260008273ffffffffffffffffffffffffffffffffffffffff1673ffffffffffffffffffffffffffffffffffffffff1681526020019081526020016000206001018054600181600116156101000203166002900480601f016020809104026020016040519081016040528092919081815260200182805460018160011615610100020316600290048015610ff35780601f10610fc857610100808354040283529160200191610ff3565b820191906000526020600020905b815481529060010190602001808311610fd657829003601f168201915b505050505094508293505b8180600101925050610e3c565b505050909192565b6060600380548060200260200160405190810160405280929190818152602001828054801561109757602002820191906000526020600020905b8160009054906101000a900473ffffffffffffffffffffffffffffffffffffffff1673ffffffffffffffffffffffffffffffffffffffff168152602001906001019080831161104d575b5050505050905090565b6000809054906101000a900473ffffffffffffffffffffffffffffffffffffffff1673ffffffffffffffffffffffffffffffffffffffff163373ffffffffffffffffffffffffffffffffffffffff161415156110fc576111fb565b80600160008273ffffffffffffffffffffffffffffffffffffffff1673ffffffffffffffffffffffffffffffffffffffff16815260200190815260200160002060010160009054906101000a900460ff1615611157576111f9565b60018060008473ffffffffffffffffffffffffffffffffffffffff1673ffffffffffffffffffffffffffffffffffffffff1681526020019081526020016000206000018190555060018060008473ffffffffffffffffffffffffffffffffffffffff1673ffffffffffffffffffffffffffffffffffffffff16815260200190815260200160002060030160146101000a81548160ff0219169083151502179055505b505b50565b6000808251149050919050565b60008060149054906101000a900460ff16905090565b600060149054906101000a900460ff168061132257506000151561131e600260003373ffffffffffffffffffffffffffffffffffffffff1673ffffffffffffffffffffffffffffffffffffffff1681526020019081526020016000206001018054600181600116156101000203166002900480601f0160208091040260200160405190810160405280929190818152602001828054600181600116156101000203166002900480156113145780601f106112e957610100808354040283529160200191611314565b820191906000526020600020905b8154815290600101906020018083116112f757829003601f168201915b50505050506111fe565b1515145b1561132c5761144c565b60033390806001815401808255809150509060018203906000526020600020016000909192909190916101000a81548173ffffffffffffffffffffffffffffffffffffffff021916908373ffffffffffffffffffffffffffffffffffffffff160217905550506000600260003373ffffffffffffffffffffffffffffffffffffffff1673ffffffffffffffffffffffffffffffffffffffff168152602001908152602001600020600001819055506113e3816111fe565b156113f4576113f133610853565b90505b80600260003373ffffffffffffffffffffffffffffffffffffffff1673ffffffffffffffffffffffffffffffffffffffff168152602001908152602001600020600101908051906020019061144a92919061181d565b505b50565b6000803360001515600060149054906101000a900460ff16151514806114c15750600160008273ffffffffffffffffffffffffffffffffffffffff1673ffffffffffffffffffffffffffffffffffffffff16815260200190815260200160002060010160009054906101000a900460ff165b806115195750600160008273ffffffffffffffffffffffffffffffffffffffff1673ffffffffffffffffffffffffffffffffffffffff16815260200190815260200160002060030160149054906101000a900460ff16155b1561152357611817565b836000806000600380549050845114151561153d57611812565b600092505b83518360ff1610156117065760009150600090505b83518160ff1610156115e157838360ff1681518110151561157457fe5b9060200190602002015173ffffffffffffffffffffffffffffffffffffffff16848260ff168151811015156115a557fe5b9060200190602002015173ffffffffffffffffffffffffffffffffffffffff1614156115d45781806001019250505b8080600101915050611557565b60018260ff1611156115f257611812565b6116ef60026000868660ff1681518110151561160a57fe5b9060200190602002015173ffffffffffffffffffffffffffffffffffffffff1673ffffffffffffffffffffffffffffffffffffffff1681526020019081526020016000206001018054600181600116156101000203166002900480601f0160208091040260200160405190810160405280929190818152602001828054600181600116156101000203166002900480156116e55780601f106116ba576101008083540402835291602001916116e5565b820191906000526020600020905b8154815290600101906020018083116116c857829003601f168201915b50505050506111fe565b156116f957611812565b8280600101935050611542565b600160003373ffffffffffffffffffffffffffffffffffffffff1673ffffffffffffffffffffffffffffffffffffffff168152602001908152602001600020965060018760010160006101000a81548160ff0219169083151502179055508787600201908051906020019061177c92919061189d565b50600095505b87518660ff1610156118115786600001548660ff1689510302600260008a8960ff168151811015156117b057fe5b9060200190602002015173ffffffffffffffffffffffffffffffffffffffff1673ffffffffffffffffffffffffffffffffffffffff168152602001908152602001600020600001600082825401925050819055508580600101965050611782565b5b505050505b50505050565b828054600181600116156101000203166002900490600052602060002090601f016020900481019282601f1061185e57805160ff191683800117855561188c565b8280016001018555821561188c579182015b8281111561188b578251825591602001919060010190611870565b5b5090506118999190611927565b5090565b828054828255906000526020600020908101928215611916579160200282015b828111156119155782518260006101000a81548173ffffffffffffffffffffffffffffffffffffffff021916908373ffffffffffffffffffffffffffffffffffffffff160217905550916020019190600101906118bd565b5b509050611923919061194c565b5090565b61194991905b8082111561194557600081600090555060010161192d565b5090565b90565b61198c91905b8082111561198857600081816101000a81549073ffffffffffffffffffffffffffffffffffffffff021916905550600101611952565b5090565b905600a165627a7a7230582054a08f726c8ed7f1ad6c9016c75f09ef5d2829beef5aa1b3daf69616c1cc0d4a0029",
  "source": "pragma solidity >=0.4.22 <0.6.0;\n\nimport \"./VoteContractInterface.sol\";\n\ncontract DeBordaVoteContract is VoteContractInterface {\n\n    constructor() public {\n        owner = msg.sender;\n        voters[owner].weight = 1;\n        voters[owner].canVote = true;\n    }\n\n    function candidateAsProposal(string name) mayBeCandidate public {\n        proposalsAddresses.push(msg.sender);\n        proposals[msg.sender].voteCount = 0;\n        if (isEmptyString(name)) {\n            name = fromAddressToString(msg.sender);\n        }\n        proposals[msg.sender].name = name;\n    }\n\n    // Give $(toVoter) the right to vote.\n    // May only be called by $(owner).\n    function giveRightToVote(address toVoter) public onlyOwner hasNotVotedYet(toVoter) {\n        voters[toVoter].weight = 1;\n        voters[toVoter].canVote = true;\n    }\n\n    // Delegate sender's vote to the voter $(to).\n    function delegate(address to) public mayVote(msg.sender) {\n        Voter storage sender = voters[msg.sender];\n\n        while (voters[to].delegate != address(0) && voters[to].delegate != msg.sender)\n            to = voters[to].delegate;\n        if (to == msg.sender || voters[to].canVote == false) return;\n        sender.voted = true;\n        sender.delegate = to;\n        Voter storage delegateTo = voters[to];\n        if (delegateTo.voted) {\n            for (uint8 i = 0; i < delegateTo.vote.length; i++) {\n                proposals[delegateTo.vote[i]].voteCount += (proposalsAddresses.length - i) * sender.weight;\n            }\n        }\n        else {\n            delegateTo.weight += sender.weight;\n        }\n    }\n\n    // Vote for proposals\n    function vote(address[] proposalsInOrder) public mayVote(msg.sender) arePossibleProposals(proposalsInOrder) {\n        Voter storage sender = voters[msg.sender];\n        sender.voted = true;\n        sender.vote = proposalsInOrder;\n        for (uint8 i = 0; i < proposalsInOrder.length; i++) {\n            proposals[proposalsInOrder[i]].voteCount += (proposalsInOrder.length - i) * sender.weight;\n        }\n    }\n\n    // Retrieve data for one proposal $(proposalId)\n    function getProposalData(address proposalId) public view isOneOfPossibleProposal(proposalId) returns (address id, string name, uint voteCount) {\n        id = proposalId;\n        name = proposals[proposalId].name;\n        voteCount = proposals[proposalId].voteCount;\n    }\n\n    function getProposals() public view returns (address[] proposals) {\n        return proposalsAddresses;\n    }\n\n    function winningProposal() public view returns (address winningProposalAddress, string winningProposalName, uint winningProposalVoteCount) {\n        uint256 winningVoteCount = 0;\n        for (uint8 proposalIndex = 0; proposalIndex < proposalsAddresses.length; proposalIndex++) {\n            address proposalAddress = proposalsAddresses[proposalIndex];\n            if (proposals[proposalAddress].voteCount > winningVoteCount) {\n                winningVoteCount = proposals[proposalAddress].voteCount;\n                winningProposalAddress = proposalAddress;\n                winningProposalName = proposals[proposalAddress].name;\n                winningProposalVoteCount = winningVoteCount;\n            }\n        }\n    }\n}\n",
  "sourcePath": "/Users/thomasecalle/Development/blockchain/vote-project/contracts/DeBordaVoteContract.sol",
  "compiler": {
    "name": "solc",
    "version": "0.4.24+commit.e67f0147.Emscripten.clang"
  },
  "schemaVersion": "2.0.1",
  "updatedAt": "2018-12-30T17:34:38.781Z"
}