{
  "contractName": "DeBordaVoteContract",
  "abi": [
    {
      "constant": false,
      "inputs": [],
      "name": "stopVote",
      "outputs": [],
      "payable": false,
      "stateMutability": "nonpayable",
      "type": "function",
      "signature": "0x2495c0ce"
    },
    {
      "constant": false,
      "inputs": [],
      "name": "startVote",
      "outputs": [],
      "payable": false,
      "stateMutability": "nonpayable",
      "type": "function",
      "signature": "0x4c0a6af0"
    },
    {
      "constant": true,
      "inputs": [],
      "name": "isUserAbleToVote",
      "outputs": [
        {
          "name": "",
          "type": "bool"
        }
      ],
      "payable": false,
      "stateMutability": "view",
      "type": "function",
      "signature": "0x59bf9ec6"
    },
    {
      "constant": true,
      "inputs": [
        {
          "name": "x",
          "type": "address"
        }
      ],
      "name": "fromAddressToString",
      "outputs": [
        {
          "name": "",
          "type": "string"
        }
      ],
      "payable": false,
      "stateMutability": "pure",
      "type": "function",
      "signature": "0x5a3e0328"
    },
    {
      "constant": true,
      "inputs": [],
      "name": "isVoteEnded",
      "outputs": [
        {
          "name": "",
          "type": "bool"
        }
      ],
      "payable": false,
      "stateMutability": "view",
      "type": "function",
      "signature": "0x789f0e36"
    },
    {
      "constant": true,
      "inputs": [],
      "name": "isOwner",
      "outputs": [
        {
          "name": "",
          "type": "bool"
        }
      ],
      "payable": false,
      "stateMutability": "view",
      "type": "function",
      "signature": "0x8f32d59b"
    },
    {
      "constant": true,
      "inputs": [
        {
          "name": "text",
          "type": "string"
        }
      ],
      "name": "isEmptyString",
      "outputs": [
        {
          "name": "",
          "type": "bool"
        }
      ],
      "payable": false,
      "stateMutability": "pure",
      "type": "function",
      "signature": "0xa45f379e"
    },
    {
      "constant": true,
      "inputs": [],
      "name": "isVoteStarted",
      "outputs": [
        {
          "name": "",
          "type": "bool"
        }
      ],
      "payable": false,
      "stateMutability": "view",
      "type": "function",
      "signature": "0xba7faf49"
    },
    {
      "constant": true,
      "inputs": [],
      "name": "hasUserVotedYet",
      "outputs": [
        {
          "name": "",
          "type": "bool"
        }
      ],
      "payable": false,
      "stateMutability": "view",
      "type": "function",
      "signature": "0xd37c900e"
    },
    {
      "constant": true,
      "inputs": [],
      "name": "isUserProposalYet",
      "outputs": [
        {
          "name": "",
          "type": "bool"
        }
      ],
      "payable": false,
      "stateMutability": "view",
      "type": "function",
      "signature": "0xdb4d5b48"
    },
    {
      "inputs": [],
      "payable": false,
      "stateMutability": "nonpayable",
      "type": "constructor",
      "signature": "constructor"
    },
    {
      "constant": false,
      "inputs": [
        {
          "name": "name",
          "type": "string"
        }
      ],
      "name": "candidateAsProposal",
      "outputs": [],
      "payable": false,
      "stateMutability": "nonpayable",
      "type": "function",
      "signature": "0xebb75b01"
    },
    {
      "constant": false,
      "inputs": [
        {
          "name": "toVoter",
          "type": "address"
        }
      ],
      "name": "giveRightToVote",
      "outputs": [],
      "payable": false,
      "stateMutability": "nonpayable",
      "type": "function",
      "signature": "0x9e7b8d61"
    },
    {
      "constant": false,
      "inputs": [
        {
          "name": "to",
          "type": "address"
        }
      ],
      "name": "delegate",
      "outputs": [],
      "payable": false,
      "stateMutability": "nonpayable",
      "type": "function",
      "signature": "0x5c19a95c"
    },
    {
      "constant": false,
      "inputs": [
        {
          "name": "proposalsInOrder",
          "type": "address[]"
        }
      ],
      "name": "vote",
      "outputs": [],
      "payable": false,
      "stateMutability": "nonpayable",
      "type": "function",
      "signature": "0xed081329"
    },
    {
      "constant": true,
      "inputs": [
        {
          "name": "proposalId",
          "type": "address"
        }
      ],
      "name": "getProposalData",
      "outputs": [
        {
          "name": "id",
          "type": "address"
        },
        {
          "name": "name",
          "type": "string"
        },
        {
          "name": "voteCount",
          "type": "uint256"
        }
      ],
      "payable": false,
      "stateMutability": "view",
      "type": "function",
      "signature": "0x351e1798"
    },
    {
      "constant": true,
      "inputs": [],
      "name": "getProposals",
      "outputs": [
        {
          "name": "proposals",
          "type": "address[]"
        }
      ],
      "payable": false,
      "stateMutability": "view",
      "type": "function",
      "signature": "0x62564c48"
    },
    {
      "constant": true,
      "inputs": [],
      "name": "winningProposal",
      "outputs": [
        {
          "name": "winningProposalAddress",
          "type": "address"
        },
        {
          "name": "winningProposalName",
          "type": "string"
        },
        {
          "name": "winningProposalVoteCount",
          "type": "uint256"
        }
      ],
      "payable": false,
      "stateMutability": "view",
      "type": "function",
      "signature": "0x609ff1bd"
    }
  ],
  "bytecode": "0x608060405260008060146101000a81548160ff021916908315150217905550635c5ed4f960015534801561003257600080fd5b50336000806101000a81548173ffffffffffffffffffffffffffffffffffffffff021916908373ffffffffffffffffffffffffffffffffffffffff1602179055506001600260008060009054906101000a900473ffffffffffffffffffffffffffffffffffffffff1673ffffffffffffffffffffffffffffffffffffffff1673ffffffffffffffffffffffffffffffffffffffff168152602001908152602001600020600001819055506001600260008060009054906101000a900473ffffffffffffffffffffffffffffffffffffffff1673ffffffffffffffffffffffffffffffffffffffff1673ffffffffffffffffffffffffffffffffffffffff16815260200190815260200160002060030160146101000a81548160ff021916908315150217905550611eef806101676000396000f3fe6080604052600436106100f1576000357c0100000000000000000000000000000000000000000000000000000000900463ffffffff1680632495c0ce146100f6578063351e17981461010d5780634c0a6af01461021157806359bf9ec6146102285780635a3e0328146102575780635c19a95c14610321578063609ff1bd1461037257806362564c481461043c578063789f0e36146104a85780638f32d59b146104d75780639e7b8d6114610506578063a45f379e14610557578063ba7faf4914610637578063d37c900e14610666578063db4d5b4814610695578063ebb75b01146106c4578063ed0813291461078c575b600080fd5b34801561010257600080fd5b5061010b610851565b005b34801561011957600080fd5b5061015c6004803603602081101561013057600080fd5b81019080803573ffffffffffffffffffffffffffffffffffffffff1690602001909291905050506108d1565b604051808473ffffffffffffffffffffffffffffffffffffffff1673ffffffffffffffffffffffffffffffffffffffff16815260200180602001838152602001828103825284818151815260200191508051906020019080838360005b838110156101d45780820151818401526020810190506101b9565b50505050905090810190601f1680156102015780820380516001836020036101000a031916815260200191505b5094505050505060405180910390f35b34801561021d57600080fd5b50610226610af3565b005b34801561023457600080fd5b5061023d610b6c565b604051808215151515815260200191505060405180910390f35b34801561026357600080fd5b506102a66004803603602081101561027a57600080fd5b81019080803573ffffffffffffffffffffffffffffffffffffffff169060200190929190505050610c22565b6040518080602001828103825283818151815260200191508051906020019080838360005b838110156102e65780820151818401526020810190506102cb565b50505050905090810190601f1680156103135780820380516001836020036101000a031916815260200191505b509250505060405180910390f35b34801561032d57600080fd5b506103706004803603602081101561034457600080fd5b81019080803573ffffffffffffffffffffffffffffffffffffffff169060200190929190505050610d0d565b005b34801561037e57600080fd5b506103876111a8565b604051808473ffffffffffffffffffffffffffffffffffffffff1673ffffffffffffffffffffffffffffffffffffffff16815260200180602001838152602001828103825284818151815260200191508051906020019080838360005b838110156103ff5780820151818401526020810190506103e4565b50505050905090810190601f16801561042c5780820380516001836020036101000a031916815260200191505b5094505050505060405180910390f35b34801561044857600080fd5b50610451611392565b6040518080602001828103825283818151815260200191508051906020019060200280838360005b83811015610494578082015181840152602081019050610479565b505050509050019250505060405180910390f35b3480156104b457600080fd5b506104bd611420565b604051808215151515815260200191505060405180910390f35b3480156104e357600080fd5b506104ec61142c565b604051808215151515815260200191505060405180910390f35b34801561051257600080fd5b506105556004803603602081101561052957600080fd5b81019080803573ffffffffffffffffffffffffffffffffffffffff169060200190929190505050611483565b005b34801561056357600080fd5b5061061d6004803603602081101561057a57600080fd5b810190808035906020019064010000000081111561059757600080fd5b8201836020820111156105a957600080fd5b803590602001918460018302840111640100000000831117156105cb57600080fd5b91908080601f016020809104026020016040519081016040528093929190818152602001838380828437600081840152601f19601f8201169050808301925050505050505091929192905050506115e2565b604051808215151515815260200191505060405180910390f35b34801561064357600080fd5b5061064c6115ef565b604051808215151515815260200191505060405180910390f35b34801561067257600080fd5b5061067b611605565b604051808215151515815260200191505060405180910390f35b3480156106a157600080fd5b506106aa61165c565b604051808215151515815260200191505060405180910390f35b3480156106d057600080fd5b5061078a600480360360208110156106e757600080fd5b810190808035906020019064010000000081111561070457600080fd5b82018360208201111561071657600080fd5b8035906020019184600183028401116401000000008311171561073857600080fd5b91908080601f016020809104026020016040519081016040528093929190818152602001838380828437600081840152601f19601f820116905080830192505050505050509192919290505050611747565b005b34801561079857600080fd5b5061084f600480360360208110156107af57600080fd5b81019080803590602001906401000000008111156107cc57600080fd5b8201836020820111156107de57600080fd5b8035906020019184602083028401116401000000008311171561080057600080fd5b919080806020026020016040519081016040528093929190818152602001838360200280828437600081840152601f19601f820116905080830192505050505050509192919290505050611975565b005b6000809054906101000a900473ffffffffffffffffffffffffffffffffffffffff1673ffffffffffffffffffffffffffffffffffffffff163373ffffffffffffffffffffffffffffffffffffffff161415156108ac576108cf565b600060018190555060008060146101000a81548160ff0219169083151502179055505b565b600060606000836109bb600360008373ffffffffffffffffffffffffffffffffffffffff1673ffffffffffffffffffffffffffffffffffffffff1681526020019081526020016000206001018054600181600116156101000203166002900480601f0160208091040260200160405190810160405280929190818152602001828054600181600116156101000203166002900480156109b15780601f10610986576101008083540402835291602001916109b1565b820191906000526020600020905b81548152906001019060200180831161099457829003601f168201915b50505050506115e2565b156109c557610aeb565b849350600360008673ffffffffffffffffffffffffffffffffffffffff1673ffffffffffffffffffffffffffffffffffffffff1681526020019081526020016000206001018054600181600116156101000203166002900480601f016020809104026020016040519081016040528092919081815260200182805460018160011615610100020316600290048015610a9e5780601f10610a7357610100808354040283529160200191610a9e565b820191906000526020600020905b815481529060010190602001808311610a8157829003601f168201915b50505050509250600360008673ffffffffffffffffffffffffffffffffffffffff1673ffffffffffffffffffffffffffffffffffffffff1681526020019081526020016000206000015491505b509193909250565b6000809054906101000a900473ffffffffffffffffffffffffffffffffffffffff1673ffffffffffffffffffffffffffffffffffffffff163373ffffffffffffffffffffffffffffffffffffffff16141515610b4e57610b6a565b6001600060146101000a81548160ff0219169083151502179055505b565b6000600260003373ffffffffffffffffffffffffffffffffffffffff1673ffffffffffffffffffffffffffffffffffffffff16815260200190815260200160002060030160149054906101000a900460ff168015610c1d575060001515600260003373ffffffffffffffffffffffffffffffffffffffff1673ffffffffffffffffffffffffffffffffffffffff16815260200190815260200160002060010160009054906101000a900460ff161515145b905090565b60608060146040519080825280601f01601f191660200182016040528015610c595781602001600182028038833980820191505090505b50905060008090505b6014811015610d03578060130360080260020a8473ffffffffffffffffffffffffffffffffffffffff16811515610c9557fe5b047f0100000000000000000000000000000000000000000000000000000000000000028282815181101515610cc657fe5b9060200101907effffffffffffffffffffffffffffffffffffffffffffffffffffffffffffff1916908160001a9053508080600101915050610c62565b5080915050919050565b3360001515600060149054906101000a900460ff1615151480610d31575042600154105b80610d885750600260008273ffffffffffffffffffffffffffffffffffffffff1673ffffffffffffffffffffffffffffffffffffffff16815260200190815260200160002060010160009054906101000a900460ff165b80610de05750600260008273ffffffffffffffffffffffffffffffffffffffff1673ffffffffffffffffffffffffffffffffffffffff16815260200190815260200160002060030160149054906101000a900460ff16155b15610dea576111a4565b6000600260003373ffffffffffffffffffffffffffffffffffffffff1673ffffffffffffffffffffffffffffffffffffffff16815260200190815260200160002090505b600073ffffffffffffffffffffffffffffffffffffffff16600260008573ffffffffffffffffffffffffffffffffffffffff1673ffffffffffffffffffffffffffffffffffffffff16815260200190815260200160002060030160009054906101000a900473ffffffffffffffffffffffffffffffffffffffff1673ffffffffffffffffffffffffffffffffffffffff1614158015610f5b57503373ffffffffffffffffffffffffffffffffffffffff16600260008573ffffffffffffffffffffffffffffffffffffffff1673ffffffffffffffffffffffffffffffffffffffff16815260200190815260200160002060030160009054906101000a900473ffffffffffffffffffffffffffffffffffffffff1673ffffffffffffffffffffffffffffffffffffffff1614155b15610fca57600260008473ffffffffffffffffffffffffffffffffffffffff1673ffffffffffffffffffffffffffffffffffffffff16815260200190815260200160002060030160009054906101000a900473ffffffffffffffffffffffffffffffffffffffff169250610e2e565b3373ffffffffffffffffffffffffffffffffffffffff168373ffffffffffffffffffffffffffffffffffffffff16141561100457506111a3565b60018160010160006101000a81548160ff021916908315150217905550828160030160006101000a81548173ffffffffffffffffffffffffffffffffffffffff021916908373ffffffffffffffffffffffffffffffffffffffff1602179055506000600260008573ffffffffffffffffffffffffffffffffffffffff1673ffffffffffffffffffffffffffffffffffffffff16815260200190815260200160002090508060010160009054906101000a900460ff16156111895760008090505b81600201805490508160ff1610156111835782600001548160ff168360020180549050030260036000846002018460ff1681548110151561110157fe5b9060005260206000200160009054906101000a900473ffffffffffffffffffffffffffffffffffffffff1673ffffffffffffffffffffffffffffffffffffffff1673ffffffffffffffffffffffffffffffffffffffff1681526020019081526020016000206000016000828254019250508190555080806001019150506110c4565b506111a0565b816000015481600001600082825401925050819055505b50505b5b5050565b600060606000806000905060008090505b6004805490508160ff16101561138b57600060048260ff168154811015156111dd57fe5b9060005260206000200160009054906101000a900473ffffffffffffffffffffffffffffffffffffffff16905082600360008373ffffffffffffffffffffffffffffffffffffffff1673ffffffffffffffffffffffffffffffffffffffff16815260200190815260200160002060000154111561137d57600360008273ffffffffffffffffffffffffffffffffffffffff1673ffffffffffffffffffffffffffffffffffffffff168152602001908152602001600020600001549250809550600360008273ffffffffffffffffffffffffffffffffffffffff1673ffffffffffffffffffffffffffffffffffffffff1681526020019081526020016000206001018054600181600116156101000203166002900480601f0160208091040260200160405190810160405280929190818152602001828054600181600116156101000203166002900480156113725780601f1061134757610100808354040283529160200191611372565b820191906000526020600020905b81548152906001019060200180831161135557829003601f168201915b505050505094508293505b5080806001019150506111b9565b5050909192565b6060600480548060200260200160405190810160405280929190818152602001828054801561141657602002820191906000526020600020905b8160009054906101000a900473ffffffffffffffffffffffffffffffffffffffff1673ffffffffffffffffffffffffffffffffffffffff16815260200190600101908083116113cc575b5050505050905090565b60006001544211905090565b60008060009054906101000a900473ffffffffffffffffffffffffffffffffffffffff1673ffffffffffffffffffffffffffffffffffffffff163373ffffffffffffffffffffffffffffffffffffffff1614905090565b6000809054906101000a900473ffffffffffffffffffffffffffffffffffffffff1673ffffffffffffffffffffffffffffffffffffffff163373ffffffffffffffffffffffffffffffffffffffff161415156114de576115df565b80600260008273ffffffffffffffffffffffffffffffffffffffff1673ffffffffffffffffffffffffffffffffffffffff16815260200190815260200160002060010160009054906101000a900460ff1615611539576115dd565b6001600260008473ffffffffffffffffffffffffffffffffffffffff1673ffffffffffffffffffffffffffffffffffffffff168152602001908152602001600020600001819055506001600260008473ffffffffffffffffffffffffffffffffffffffff1673ffffffffffffffffffffffffffffffffffffffff16815260200190815260200160002060030160146101000a81548160ff0219169083151502179055505b505b50565b6000808251149050919050565b60008060149054906101000a900460ff16905090565b6000600260003373ffffffffffffffffffffffffffffffffffffffff1673ffffffffffffffffffffffffffffffffffffffff16815260200190815260200160002060010160009054906101000a900460ff16905090565b6000611741600360003373ffffffffffffffffffffffffffffffffffffffff1673ffffffffffffffffffffffffffffffffffffffff1681526020019081526020016000206001018054600181600116156101000203166002900480601f0160208091040260200160405190810160405280929190818152602001828054600181600116156101000203166002900480156117375780601f1061170c57610100808354040283529160200191611737565b820191906000526020600020905b81548152906001019060200180831161171a57829003601f168201915b50505050506115e2565b15905090565b600060149054906101000a900460ff1680611848575060001515611844600360003373ffffffffffffffffffffffffffffffffffffffff1673ffffffffffffffffffffffffffffffffffffffff1681526020019081526020016000206001018054600181600116156101000203166002900480601f01602080910402602001604051908101604052809291908181526020018280546001816001161561010002031660029004801561183a5780601f1061180f5761010080835404028352916020019161183a565b820191906000526020600020905b81548152906001019060200180831161181d57829003601f168201915b50505050506115e2565b1515145b1561185257611972565b60043390806001815401808255809150509060018203906000526020600020016000909192909190916101000a81548173ffffffffffffffffffffffffffffffffffffffff021916908373ffffffffffffffffffffffffffffffffffffffff160217905550506000600360003373ffffffffffffffffffffffffffffffffffffffff1673ffffffffffffffffffffffffffffffffffffffff16815260200190815260200160002060000181905550611909816115e2565b1561191a5761191733610c22565b90505b80600360003373ffffffffffffffffffffffffffffffffffffffff1673ffffffffffffffffffffffffffffffffffffffff1681526020019081526020016000206001019080519060200190611970929190611d51565b505b50565b3360001515600060149054906101000a900460ff1615151480611999575042600154105b806119f05750600260008273ffffffffffffffffffffffffffffffffffffffff1673ffffffffffffffffffffffffffffffffffffffff16815260200190815260200160002060010160009054906101000a900460ff165b80611a485750600260008273ffffffffffffffffffffffffffffffffffffffff1673ffffffffffffffffffffffffffffffffffffffff16815260200190815260200160002060030160149054906101000a900460ff16155b15611a5257611d4d565b816004805490508151141515611a6757611d4b565b60008090505b81518160ff161015611c3957600080905060008090505b83518160ff161015611b0e57838360ff16815181101515611aa157fe5b9060200190602002015173ffffffffffffffffffffffffffffffffffffffff16848260ff16815181101515611ad257fe5b9060200190602002015173ffffffffffffffffffffffffffffffffffffffff161415611b015781806001019250505b8080600101915050611a84565b5060018160ff161115611b22575050611d4b565b611c1f60036000858560ff16815181101515611b3a57fe5b9060200190602002015173ffffffffffffffffffffffffffffffffffffffff1673ffffffffffffffffffffffffffffffffffffffff1681526020019081526020016000206001018054600181600116156101000203166002900480601f016020809104026020016040519081016040528092919081815260200182805460018160011615610100020316600290048015611c155780601f10611bea57610100808354040283529160200191611c15565b820191906000526020600020905b815481529060010190602001808311611bf857829003601f168201915b50505050506115e2565b15611c2b575050611d4b565b508080600101915050611a6d565b506000600260003373ffffffffffffffffffffffffffffffffffffffff1673ffffffffffffffffffffffffffffffffffffffff168152602001908152602001600020905060018160010160006101000a81548160ff02191690831515021790555083816002019080519060200190611cb2929190611dd1565b5060008090505b84518160ff161015611d485781600001548160ff168651030260036000878460ff16815181101515611ce757fe5b9060200190602002015173ffffffffffffffffffffffffffffffffffffffff1673ffffffffffffffffffffffffffffffffffffffff168152602001908152602001600020600001600082825401925050819055508080600101915050611cb9565b50505b505b5050565b828054600181600116156101000203166002900490600052602060002090601f016020900481019282601f10611d9257805160ff1916838001178555611dc0565b82800160010185558215611dc0579182015b82811115611dbf578251825591602001919060010190611da4565b5b509050611dcd9190611e5b565b5090565b828054828255906000526020600020908101928215611e4a579160200282015b82811115611e495782518260006101000a81548173ffffffffffffffffffffffffffffffffffffffff021916908373ffffffffffffffffffffffffffffffffffffffff16021790555091602001919060010190611df1565b5b509050611e579190611e80565b5090565b611e7d91905b80821115611e79576000816000905550600101611e61565b5090565b90565b611ec091905b80821115611ebc57600081816101000a81549073ffffffffffffffffffffffffffffffffffffffff021916905550600101611e86565b5090565b9056fea165627a7a723058209ce510936e3a4cd1c6d04d1f5cd3298ff7bb77532e1b26867fc33d6ec1050f940029",
  "source": "pragma solidity >=0.5 <0.6.0;\n\nimport \"./VoteContractInterface.sol\";\n\ncontract DeBordaVoteContract is VoteContractInterface {\n\n    constructor() public {\n        owner = msg.sender;\n        voters[owner].weight = 1;\n        voters[owner].canVote = true;\n    }\n\n    function candidateAsProposal(string memory name) mayBeCandidate public {\n        proposalsAddresses.push(msg.sender);\n        proposals[msg.sender].voteCount = 0;\n        if (isEmptyString(name)) {\n            name = fromAddressToString(msg.sender);\n        }\n        proposals[msg.sender].name = name;\n    }\n\n    // Give $(toVoter) the right to vote.\n    // May only be called by $(owner).\n    function giveRightToVote(address toVoter) public onlyOwner hasNotVotedYet(toVoter) {\n        voters[toVoter].weight = 1;\n        voters[toVoter].canVote = true;\n    }\n\n    // Delegate sender's vote to the voter $(to).\n    function delegate(address to) public mayVote(msg.sender) {\n        Voter storage sender = voters[msg.sender];\n\n        while (voters[to].delegate != address(0) && voters[to].delegate != msg.sender)\n            to = voters[to].delegate;\n        if (to == msg.sender) return;\n        sender.voted = true;\n        sender.delegate = to;\n        Voter storage delegateTo = voters[to];\n        if (delegateTo.voted) {\n            for (uint8 i = 0; i < delegateTo.vote.length; i++) {\n                proposals[delegateTo.vote[i]].voteCount += (delegateTo.vote.length - i) * sender.weight;\n            }\n        }\n        else {\n            delegateTo.weight += sender.weight;\n        }\n    }\n\n    // Vote for proposals\n    function vote(address[] memory proposalsInOrder) public mayVote(msg.sender) arePossibleProposals(proposalsInOrder) {\n        Voter storage sender = voters[msg.sender];\n        sender.voted = true;\n        sender.vote = proposalsInOrder;\n        for (uint8 i = 0; i < proposalsInOrder.length; i++) {\n            proposals[proposalsInOrder[i]].voteCount += (proposalsInOrder.length - i) * sender.weight;\n        }\n    }\n\n    // Retrieve data for one proposal $(proposalId)\n    function getProposalData(address proposalId) public view isOneOfPossibleProposal(proposalId) returns (address id, string memory name, uint voteCount) {\n        id = proposalId;\n        name = proposals[proposalId].name;\n        voteCount = proposals[proposalId].voteCount;\n    }\n\n    function getProposals() public view returns (address[] memory proposals) {\n        return proposalsAddresses;\n    }\n\n    function winningProposal() public view returns (address winningProposalAddress, string memory winningProposalName, uint winningProposalVoteCount) {\n        uint256 winningVoteCount = 0;\n        for (uint8 proposalIndex = 0; proposalIndex < proposalsAddresses.length; proposalIndex++) {\n            address proposalAddress = proposalsAddresses[proposalIndex];\n            if (proposals[proposalAddress].voteCount > winningVoteCount) {\n                winningVoteCount = proposals[proposalAddress].voteCount;\n                winningProposalAddress = proposalAddress;\n                winningProposalName = proposals[proposalAddress].name;\n                winningProposalVoteCount = winningVoteCount;\n            }\n        }\n    }\n}\n",
  "sourcePath": "/Users/thomasecalle/Development/blockchain/blockchain_vote_dapp/contracts/DeBordaVoteContract.sol",
  "compiler": {
    "name": "solc",
    "version": "0.5.0+commit.1d4f565a.Emscripten.clang"
  },
  "schemaVersion": "3.0.1",
  "updatedAt": "2019-01-23T18:42:21.036Z",
  "devdoc": {
    "methods": {}
  },
  "userdoc": {
    "methods": {
      "fromAddressToString(address)": {
        "notice": "//////////////////////////////////////////"
      },
      "stopVote()": {
        "notice": "//////////////////////////////////////////"
      }
    }
  }
}