{
  "contractName": "DeBordaVoteContract",
  "abi": [
    {
      "constant": false,
      "inputs": [],
      "name": "startVote",
      "outputs": [],
      "payable": false,
      "stateMutability": "nonpayable",
      "type": "function"
    },
    {
      "constant": true,
      "inputs": [
        {
          "name": "x",
          "type": "address"
        }
      ],
      "name": "fromAddressToString",
      "outputs": [
        {
          "name": "",
          "type": "string"
        }
      ],
      "payable": false,
      "stateMutability": "pure",
      "type": "function"
    },
    {
      "constant": false,
      "inputs": [
        {
          "name": "timeStamp",
          "type": "uint256"
        }
      ],
      "name": "startVoteAndSetDate",
      "outputs": [],
      "payable": false,
      "stateMutability": "nonpayable",
      "type": "function"
    },
    {
      "constant": true,
      "inputs": [],
      "name": "isOwner",
      "outputs": [
        {
          "name": "",
          "type": "bool"
        }
      ],
      "payable": false,
      "stateMutability": "view",
      "type": "function"
    },
    {
      "constant": true,
      "inputs": [
        {
          "name": "text",
          "type": "string"
        }
      ],
      "name": "isEmptyString",
      "outputs": [
        {
          "name": "",
          "type": "bool"
        }
      ],
      "payable": false,
      "stateMutability": "pure",
      "type": "function"
    },
    {
      "constant": true,
      "inputs": [],
      "name": "isVoteStarted",
      "outputs": [
        {
          "name": "",
          "type": "bool"
        }
      ],
      "payable": false,
      "stateMutability": "view",
      "type": "function"
    },
    {
      "inputs": [],
      "payable": false,
      "stateMutability": "nonpayable",
      "type": "constructor"
    },
    {
      "constant": false,
      "inputs": [
        {
          "name": "name",
          "type": "string"
        }
      ],
      "name": "candidateAsProposal",
      "outputs": [],
      "payable": false,
      "stateMutability": "nonpayable",
      "type": "function"
    },
    {
      "constant": false,
      "inputs": [
        {
          "name": "toVoter",
          "type": "address"
        }
      ],
      "name": "giveRightToVote",
      "outputs": [],
      "payable": false,
      "stateMutability": "nonpayable",
      "type": "function"
    },
    {
      "constant": false,
      "inputs": [
        {
          "name": "to",
          "type": "address"
        }
      ],
      "name": "delegate",
      "outputs": [],
      "payable": false,
      "stateMutability": "nonpayable",
      "type": "function"
    },
    {
      "constant": false,
      "inputs": [
        {
          "name": "proposalsInOrder",
          "type": "address[]"
        }
      ],
      "name": "vote",
      "outputs": [],
      "payable": false,
      "stateMutability": "nonpayable",
      "type": "function"
    },
    {
      "constant": true,
      "inputs": [
        {
          "name": "proposalId",
          "type": "address"
        }
      ],
      "name": "getProposalData",
      "outputs": [
        {
          "name": "id",
          "type": "address"
        },
        {
          "name": "name",
          "type": "string"
        },
        {
          "name": "voteCount",
          "type": "uint256"
        }
      ],
      "payable": false,
      "stateMutability": "view",
      "type": "function"
    },
    {
      "constant": true,
      "inputs": [],
      "name": "getProposals",
      "outputs": [
        {
          "name": "proposals",
          "type": "address[]"
        }
      ],
      "payable": false,
      "stateMutability": "view",
      "type": "function"
    },
    {
      "constant": true,
      "inputs": [],
      "name": "winningProposal",
      "outputs": [
        {
          "name": "winningProposalAddress",
          "type": "address"
        },
        {
          "name": "winningProposalName",
          "type": "string"
        },
        {
          "name": "winningProposalVoteCount",
          "type": "uint256"
        }
      ],
      "payable": false,
      "stateMutability": "view",
      "type": "function"
    }
  ],
  "bytecode": "0x608060405260008060146101000a81548160ff021916908315150217905550635c5ed4f960015534801561003257600080fd5b50336000806101000a81548173ffffffffffffffffffffffffffffffffffffffff021916908373ffffffffffffffffffffffffffffffffffffffff1602179055506001600260008060009054906101000a900473ffffffffffffffffffffffffffffffffffffffff1673ffffffffffffffffffffffffffffffffffffffff1673ffffffffffffffffffffffffffffffffffffffff168152602001908152602001600020600001819055506001600260008060009054906101000a900473ffffffffffffffffffffffffffffffffffffffff1673ffffffffffffffffffffffffffffffffffffffff1673ffffffffffffffffffffffffffffffffffffffff16815260200190815260200160002060030160146101000a81548160ff021916908315150217905550611b1f806101676000396000f3006080604052600436106100c5576000357c0100000000000000000000000000000000000000000000000000000000900463ffffffff168063351e1798146100ca5780634c0a6af0146101c05780635a3e0328146101d75780635c19a95c14610293578063609ff1bd146102d657806362564c48146103a0578063877baa7d1461040c5780638f32d59b146104395780639e7b8d6114610468578063a45f379e146104ab578063ba7faf491461052c578063ebb75b011461055b578063ed081329146105c4575b600080fd5b3480156100d657600080fd5b5061010b600480360381019080803573ffffffffffffffffffffffffffffffffffffffff16906020019092919050505061062a565b604051808473ffffffffffffffffffffffffffffffffffffffff1673ffffffffffffffffffffffffffffffffffffffff16815260200180602001838152602001828103825284818151815260200191508051906020019080838360005b83811015610183578082015181840152602081019050610168565b50505050905090810190601f1680156101b05780820380516001836020036101000a031916815260200191505b5094505050505060405180910390f35b3480156101cc57600080fd5b506101d561084c565b005b3480156101e357600080fd5b50610218600480360381019080803573ffffffffffffffffffffffffffffffffffffffff1690602001909291905050506108c5565b6040518080602001828103825283818151815260200191508051906020019080838360005b8381101561025857808201518184015260208101905061023d565b50505050905090810190601f1680156102855780820380516001836020036101000a031916815260200191505b509250505060405180910390f35b34801561029f57600080fd5b506102d4600480360381019080803573ffffffffffffffffffffffffffffffffffffffff1690602001909291905050506109b1565b005b3480156102e257600080fd5b506102eb610ea7565b604051808473ffffffffffffffffffffffffffffffffffffffff1673ffffffffffffffffffffffffffffffffffffffff16815260200180602001838152602001828103825284818151815260200191508051906020019080838360005b83811015610363578082015181840152602081019050610348565b50505050905090810190601f1680156103905780820380516001836020036101000a031916815260200191505b5094505050505060405180910390f35b3480156103ac57600080fd5b506103b5611091565b6040518080602001828103825283818151815260200191508051906020019060200280838360005b838110156103f85780820151818401526020810190506103dd565b505050509050019250505060405180910390f35b34801561041857600080fd5b506104376004803603810190808035906020019092919050505061111f565b005b34801561044557600080fd5b5061044e6111a0565b604051808215151515815260200191505060405180910390f35b34801561047457600080fd5b506104a9600480360381019080803573ffffffffffffffffffffffffffffffffffffffff1690602001909291905050506111f7565b005b3480156104b757600080fd5b50610512600480360381019080803590602001908201803590602001908080601f0160208091040260200160405190810160405280939291908181526020018383808284378201915050505050509192919290505050611356565b604051808215151515815260200191505060405180910390f35b34801561053857600080fd5b50610541611363565b604051808215151515815260200191505060405180910390f35b34801561056757600080fd5b506105c2600480360381019080803590602001908201803590602001908080601f0160208091040260200160405190810160405280939291908181526020018383808284378201915050505050509192919290505050611379565b005b3480156105d057600080fd5b50610628600480360381019080803590602001908201803590602001908080602002602001604051908101604052809392919081815260200183836020028082843782019150505050505091929192905050506115a7565b005b60006060600083610714600360008373ffffffffffffffffffffffffffffffffffffffff1673ffffffffffffffffffffffffffffffffffffffff1681526020019081526020016000206001018054600181600116156101000203166002900480601f01602080910402602001604051908101604052809291908181526020018280546001816001161561010002031660029004801561070a5780601f106106df5761010080835404028352916020019161070a565b820191906000526020600020905b8154815290600101906020018083116106ed57829003601f168201915b5050505050611356565b1561071e57610844565b849350600360008673ffffffffffffffffffffffffffffffffffffffff1673ffffffffffffffffffffffffffffffffffffffff1681526020019081526020016000206001018054600181600116156101000203166002900480601f0160208091040260200160405190810160405280929190818152602001828054600181600116156101000203166002900480156107f75780601f106107cc576101008083540402835291602001916107f7565b820191906000526020600020905b8154815290600101906020018083116107da57829003601f168201915b50505050509250600360008673ffffffffffffffffffffffffffffffffffffffff1673ffffffffffffffffffffffffffffffffffffffff1681526020019081526020016000206000015491505b509193909250565b6000809054906101000a900473ffffffffffffffffffffffffffffffffffffffff1673ffffffffffffffffffffffffffffffffffffffff163373ffffffffffffffffffffffffffffffffffffffff161415156108a7576108c3565b6001600060146101000a81548160ff0219169083151502179055505b565b606080600060146040519080825280601f01601f1916602001820160405280156108fe5781602001602082028038833980820191505090505b509150600090505b60148110156109a7578060130360080260020a8473ffffffffffffffffffffffffffffffffffffffff1681151561093957fe5b047f010000000000000000000000000000000000000000000000000000000000000002828281518110151561096a57fe5b9060200101907effffffffffffffffffffffffffffffffffffffffffffffffffffffffffffff1916908160001a9053508080600101915050610906565b8192505050919050565b60008060003360001515600060149054906101000a900460ff16151514806109da575042600154105b80610a315750600260008273ffffffffffffffffffffffffffffffffffffffff1673ffffffffffffffffffffffffffffffffffffffff16815260200190815260200160002060010160009054906101000a900460ff165b80610a895750600260008273ffffffffffffffffffffffffffffffffffffffff1673ffffffffffffffffffffffffffffffffffffffff16815260200190815260200160002060030160149054906101000a900460ff16155b15610a9357610ea0565b600260003373ffffffffffffffffffffffffffffffffffffffff1673ffffffffffffffffffffffffffffffffffffffff16815260200190815260200160002093505b600073ffffffffffffffffffffffffffffffffffffffff16600260008773ffffffffffffffffffffffffffffffffffffffff1673ffffffffffffffffffffffffffffffffffffffff16815260200190815260200160002060030160009054906101000a900473ffffffffffffffffffffffffffffffffffffffff1673ffffffffffffffffffffffffffffffffffffffff1614158015610c0257503373ffffffffffffffffffffffffffffffffffffffff16600260008773ffffffffffffffffffffffffffffffffffffffff1673ffffffffffffffffffffffffffffffffffffffff16815260200190815260200160002060030160009054906101000a900473ffffffffffffffffffffffffffffffffffffffff1673ffffffffffffffffffffffffffffffffffffffff1614155b15610c7157600260008673ffffffffffffffffffffffffffffffffffffffff1673ffffffffffffffffffffffffffffffffffffffff16815260200190815260200160002060030160009054906101000a900473ffffffffffffffffffffffffffffffffffffffff169450610ad5565b3373ffffffffffffffffffffffffffffffffffffffff168573ffffffffffffffffffffffffffffffffffffffff161480610cfe575060001515600260008773ffffffffffffffffffffffffffffffffffffffff1673ffffffffffffffffffffffffffffffffffffffff16815260200190815260200160002060030160149054906101000a900460ff161515145b15610d0857610e9f565b60018460010160006101000a81548160ff021916908315150217905550848460030160006101000a81548173ffffffffffffffffffffffffffffffffffffffff021916908373ffffffffffffffffffffffffffffffffffffffff160217905550600260008673ffffffffffffffffffffffffffffffffffffffff1673ffffffffffffffffffffffffffffffffffffffff16815260200190815260200160002092508260010160009054906101000a900460ff1615610e8757600091505b82600201805490508260ff161015610e825783600001548260ff16600480549050030260036000856002018560ff16815481101515610e0057fe5b9060005260206000200160009054906101000a900473ffffffffffffffffffffffffffffffffffffffff1673ffffffffffffffffffffffffffffffffffffffff1673ffffffffffffffffffffffffffffffffffffffff168152602001908152602001600020600001600082825401925050819055508180600101925050610dc5565b610e9e565b836000015483600001600082825401925050819055505b5b5b5050505050565b6000606060008060008060009250600091505b6004805490508260ff1610156110895760048260ff16815481101515610edc57fe5b9060005260206000200160009054906101000a900473ffffffffffffffffffffffffffffffffffffffff16905082600360008373ffffffffffffffffffffffffffffffffffffffff1673ffffffffffffffffffffffffffffffffffffffff16815260200190815260200160002060000154111561107c57600360008273ffffffffffffffffffffffffffffffffffffffff1673ffffffffffffffffffffffffffffffffffffffff168152602001908152602001600020600001549250809550600360008273ffffffffffffffffffffffffffffffffffffffff1673ffffffffffffffffffffffffffffffffffffffff1681526020019081526020016000206001018054600181600116156101000203166002900480601f0160208091040260200160405190810160405280929190818152602001828054600181600116156101000203166002900480156110715780601f1061104657610100808354040283529160200191611071565b820191906000526020600020905b81548152906001019060200180831161105457829003601f168201915b505050505094508293505b8180600101925050610eba565b505050909192565b6060600480548060200260200160405190810160405280929190818152602001828054801561111557602002820191906000526020600020905b8160009054906101000a900473ffffffffffffffffffffffffffffffffffffffff1673ffffffffffffffffffffffffffffffffffffffff16815260200190600101908083116110cb575b5050505050905090565b6000809054906101000a900473ffffffffffffffffffffffffffffffffffffffff1673ffffffffffffffffffffffffffffffffffffffff163373ffffffffffffffffffffffffffffffffffffffff1614151561117a5761119d565b806001819055506001600060146101000a81548160ff0219169083151502179055505b50565b60008060009054906101000a900473ffffffffffffffffffffffffffffffffffffffff1673ffffffffffffffffffffffffffffffffffffffff163373ffffffffffffffffffffffffffffffffffffffff1614905090565b6000809054906101000a900473ffffffffffffffffffffffffffffffffffffffff1673ffffffffffffffffffffffffffffffffffffffff163373ffffffffffffffffffffffffffffffffffffffff1614151561125257611353565b80600260008273ffffffffffffffffffffffffffffffffffffffff1673ffffffffffffffffffffffffffffffffffffffff16815260200190815260200160002060010160009054906101000a900460ff16156112ad57611351565b6001600260008473ffffffffffffffffffffffffffffffffffffffff1673ffffffffffffffffffffffffffffffffffffffff168152602001908152602001600020600001819055506001600260008473ffffffffffffffffffffffffffffffffffffffff1673ffffffffffffffffffffffffffffffffffffffff16815260200190815260200160002060030160146101000a81548160ff0219169083151502179055505b505b50565b6000808251149050919050565b60008060149054906101000a900460ff16905090565b600060149054906101000a900460ff168061147a575060001515611476600360003373ffffffffffffffffffffffffffffffffffffffff1673ffffffffffffffffffffffffffffffffffffffff1681526020019081526020016000206001018054600181600116156101000203166002900480601f01602080910402602001604051908101604052809291908181526020018280546001816001161561010002031660029004801561146c5780601f106114415761010080835404028352916020019161146c565b820191906000526020600020905b81548152906001019060200180831161144f57829003601f168201915b5050505050611356565b1515145b15611484576115a4565b60043390806001815401808255809150509060018203906000526020600020016000909192909190916101000a81548173ffffffffffffffffffffffffffffffffffffffff021916908373ffffffffffffffffffffffffffffffffffffffff160217905550506000600360003373ffffffffffffffffffffffffffffffffffffffff1673ffffffffffffffffffffffffffffffffffffffff1681526020019081526020016000206000018190555061153b81611356565b1561154c57611549336108c5565b90505b80600360003373ffffffffffffffffffffffffffffffffffffffff1673ffffffffffffffffffffffffffffffffffffffff16815260200190815260200160002060010190805190602001906115a2929190611981565b505b50565b6000803360001515600060149054906101000a900460ff16151514806115ce575042600154105b806116255750600260008273ffffffffffffffffffffffffffffffffffffffff1673ffffffffffffffffffffffffffffffffffffffff16815260200190815260200160002060010160009054906101000a900460ff165b8061167d5750600260008273ffffffffffffffffffffffffffffffffffffffff1673ffffffffffffffffffffffffffffffffffffffff16815260200190815260200160002060030160149054906101000a900460ff16155b156116875761197b565b83600080600060048054905084511415156116a157611976565b600092505b83518360ff16101561186a5760009150600090505b83518160ff16101561174557838360ff168151811015156116d857fe5b9060200190602002015173ffffffffffffffffffffffffffffffffffffffff16848260ff1681518110151561170957fe5b9060200190602002015173ffffffffffffffffffffffffffffffffffffffff1614156117385781806001019250505b80806001019150506116bb565b60018260ff16111561175657611976565b61185360036000868660ff1681518110151561176e57fe5b9060200190602002015173ffffffffffffffffffffffffffffffffffffffff1673ffffffffffffffffffffffffffffffffffffffff1681526020019081526020016000206001018054600181600116156101000203166002900480601f0160208091040260200160405190810160405280929190818152602001828054600181600116156101000203166002900480156118495780601f1061181e57610100808354040283529160200191611849565b820191906000526020600020905b81548152906001019060200180831161182c57829003601f168201915b5050505050611356565b1561185d57611976565b82806001019350506116a6565b600260003373ffffffffffffffffffffffffffffffffffffffff1673ffffffffffffffffffffffffffffffffffffffff168152602001908152602001600020965060018760010160006101000a81548160ff021916908315150217905550878760020190805190602001906118e0929190611a01565b50600095505b87518660ff1610156119755786600001548660ff1689510302600360008a8960ff1681518110151561191457fe5b9060200190602002015173ffffffffffffffffffffffffffffffffffffffff1673ffffffffffffffffffffffffffffffffffffffff1681526020019081526020016000206000016000828254019250508190555085806001019650506118e6565b5b505050505b50505050565b828054600181600116156101000203166002900490600052602060002090601f016020900481019282601f106119c257805160ff19168380011785556119f0565b828001600101855582156119f0579182015b828111156119ef5782518255916020019190600101906119d4565b5b5090506119fd9190611a8b565b5090565b828054828255906000526020600020908101928215611a7a579160200282015b82811115611a795782518260006101000a81548173ffffffffffffffffffffffffffffffffffffffff021916908373ffffffffffffffffffffffffffffffffffffffff16021790555091602001919060010190611a21565b5b509050611a879190611ab0565b5090565b611aad91905b80821115611aa9576000816000905550600101611a91565b5090565b90565b611af091905b80821115611aec57600081816101000a81549073ffffffffffffffffffffffffffffffffffffffff021916905550600101611ab6565b5090565b905600a165627a7a723058206ddd87a7fd7d37533d77655796588f4a94b593de8f1aba7e8843398a2d7093cf0029",
  "source": "pragma solidity >=0.4.22 <0.6.0;\n\nimport \"./VoteContractInterface.sol\";\n\ncontract DeBordaVoteContract is VoteContractInterface {\n\n    constructor() public {\n        owner = msg.sender;\n        voters[owner].weight = 1;\n        voters[owner].canVote = true;\n    }\n\n    function candidateAsProposal(string name) mayBeCandidate public {\n        proposalsAddresses.push(msg.sender);\n        proposals[msg.sender].voteCount = 0;\n        if (isEmptyString(name)) {\n            name = fromAddressToString(msg.sender);\n        }\n        proposals[msg.sender].name = name;\n    }\n\n    // Give $(toVoter) the right to vote.\n    // May only be called by $(owner).\n    function giveRightToVote(address toVoter) public onlyOwner hasNotVotedYet(toVoter) {\n        voters[toVoter].weight = 1;\n        voters[toVoter].canVote = true;\n    }\n\n    // Delegate sender's vote to the voter $(to).\n    function delegate(address to) public mayVote(msg.sender) {\n        Voter storage sender = voters[msg.sender];\n\n        while (voters[to].delegate != address(0) && voters[to].delegate != msg.sender)\n            to = voters[to].delegate;\n        if (to == msg.sender || voters[to].canVote == false) return;\n        sender.voted = true;\n        sender.delegate = to;\n        Voter storage delegateTo = voters[to];\n        if (delegateTo.voted) {\n            for (uint8 i = 0; i < delegateTo.vote.length; i++) {\n                proposals[delegateTo.vote[i]].voteCount += (proposalsAddresses.length - i) * sender.weight;\n            }\n        }\n        else {\n            delegateTo.weight += sender.weight;\n        }\n    }\n\n    // Vote for proposals\n    function vote(address[] proposalsInOrder) public mayVote(msg.sender) arePossibleProposals(proposalsInOrder) {\n        Voter storage sender = voters[msg.sender];\n        sender.voted = true;\n        sender.vote = proposalsInOrder;\n        for (uint8 i = 0; i < proposalsInOrder.length; i++) {\n            proposals[proposalsInOrder[i]].voteCount += (proposalsInOrder.length - i) * sender.weight;\n        }\n    }\n\n    // Retrieve data for one proposal $(proposalId)\n    function getProposalData(address proposalId) public view isOneOfPossibleProposal(proposalId) returns (address id, string name, uint voteCount) {\n        id = proposalId;\n        name = proposals[proposalId].name;\n        voteCount = proposals[proposalId].voteCount;\n    }\n\n    function getProposals() public view returns (address[] proposals) {\n        return proposalsAddresses;\n    }\n\n    function winningProposal() public view returns (address winningProposalAddress, string winningProposalName, uint winningProposalVoteCount) {\n        uint256 winningVoteCount = 0;\n        for (uint8 proposalIndex = 0; proposalIndex < proposalsAddresses.length; proposalIndex++) {\n            address proposalAddress = proposalsAddresses[proposalIndex];\n            if (proposals[proposalAddress].voteCount > winningVoteCount) {\n                winningVoteCount = proposals[proposalAddress].voteCount;\n                winningProposalAddress = proposalAddress;\n                winningProposalName = proposals[proposalAddress].name;\n                winningProposalVoteCount = winningVoteCount;\n            }\n        }\n    }\n}\n",
  "sourcePath": "/Users/thomasecalle/Development/blockchain/vote-project/contracts/DeBordaVoteContract.sol",
  "compiler": {
    "name": "solc",
    "version": "0.4.24+commit.e67f0147.Emscripten.clang"
  },
  "schemaVersion": "2.0.1",
  "updatedAt": "2019-01-09T13:36:45.980Z"
}