{
  "contractName": "DeBordaVoteContract",
  "abi": [
    {
      "constant": false,
      "inputs": [],
      "name": "startVote",
      "outputs": [],
      "payable": false,
      "stateMutability": "nonpayable",
      "type": "function",
      "signature": "0x4c0a6af0"
    },
    {
      "constant": true,
      "inputs": [
        {
          "name": "x",
          "type": "address"
        }
      ],
      "name": "fromAddressToString",
      "outputs": [
        {
          "name": "",
          "type": "string"
        }
      ],
      "payable": false,
      "stateMutability": "pure",
      "type": "function",
      "signature": "0x5a3e0328"
    },
    {
      "constant": true,
      "inputs": [],
      "name": "isVoteEnded",
      "outputs": [
        {
          "name": "",
          "type": "bool"
        }
      ],
      "payable": false,
      "stateMutability": "view",
      "type": "function",
      "signature": "0x789f0e36"
    },
    {
      "constant": false,
      "inputs": [
        {
          "name": "timeStamp",
          "type": "uint256"
        }
      ],
      "name": "startVoteAndSetDate",
      "outputs": [],
      "payable": false,
      "stateMutability": "nonpayable",
      "type": "function",
      "signature": "0x877baa7d"
    },
    {
      "constant": true,
      "inputs": [],
      "name": "isOwner",
      "outputs": [
        {
          "name": "",
          "type": "bool"
        }
      ],
      "payable": false,
      "stateMutability": "view",
      "type": "function",
      "signature": "0x8f32d59b"
    },
    {
      "constant": true,
      "inputs": [
        {
          "name": "text",
          "type": "string"
        }
      ],
      "name": "isEmptyString",
      "outputs": [
        {
          "name": "",
          "type": "bool"
        }
      ],
      "payable": false,
      "stateMutability": "pure",
      "type": "function",
      "signature": "0xa45f379e"
    },
    {
      "constant": true,
      "inputs": [],
      "name": "isVoteStarted",
      "outputs": [
        {
          "name": "",
          "type": "bool"
        }
      ],
      "payable": false,
      "stateMutability": "view",
      "type": "function",
      "signature": "0xba7faf49"
    },
    {
      "inputs": [],
      "payable": false,
      "stateMutability": "nonpayable",
      "type": "constructor",
      "signature": "constructor"
    },
    {
      "constant": false,
      "inputs": [
        {
          "name": "name",
          "type": "string"
        }
      ],
      "name": "candidateAsProposal",
      "outputs": [],
      "payable": false,
      "stateMutability": "nonpayable",
      "type": "function",
      "signature": "0xebb75b01"
    },
    {
      "constant": false,
      "inputs": [
        {
          "name": "toVoter",
          "type": "address"
        }
      ],
      "name": "giveRightToVote",
      "outputs": [],
      "payable": false,
      "stateMutability": "nonpayable",
      "type": "function",
      "signature": "0x9e7b8d61"
    },
    {
      "constant": false,
      "inputs": [
        {
          "name": "to",
          "type": "address"
        }
      ],
      "name": "delegate",
      "outputs": [],
      "payable": false,
      "stateMutability": "nonpayable",
      "type": "function",
      "signature": "0x5c19a95c"
    },
    {
      "constant": false,
      "inputs": [
        {
          "name": "proposalsInOrder",
          "type": "address[]"
        }
      ],
      "name": "vote",
      "outputs": [],
      "payable": false,
      "stateMutability": "nonpayable",
      "type": "function",
      "signature": "0xed081329"
    },
    {
      "constant": true,
      "inputs": [
        {
          "name": "proposalId",
          "type": "address"
        }
      ],
      "name": "getProposalData",
      "outputs": [
        {
          "name": "id",
          "type": "address"
        },
        {
          "name": "name",
          "type": "string"
        },
        {
          "name": "voteCount",
          "type": "uint256"
        }
      ],
      "payable": false,
      "stateMutability": "view",
      "type": "function",
      "signature": "0x351e1798"
    },
    {
      "constant": true,
      "inputs": [],
      "name": "getProposals",
      "outputs": [
        {
          "name": "proposals",
          "type": "address[]"
        }
      ],
      "payable": false,
      "stateMutability": "view",
      "type": "function",
      "signature": "0x62564c48"
    },
    {
      "constant": true,
      "inputs": [],
      "name": "winningProposal",
      "outputs": [
        {
          "name": "winningProposalAddress",
          "type": "address"
        },
        {
          "name": "winningProposalName",
          "type": "string"
        },
        {
          "name": "winningProposalVoteCount",
          "type": "uint256"
        }
      ],
      "payable": false,
      "stateMutability": "view",
      "type": "function",
      "signature": "0x609ff1bd"
    }
  ],
  "bytecode": "0x608060405260008060146101000a81548160ff021916908315150217905550635c5ed4f960015534801561003257600080fd5b50336000806101000a81548173ffffffffffffffffffffffffffffffffffffffff021916908373ffffffffffffffffffffffffffffffffffffffff1602179055506001600260008060009054906101000a900473ffffffffffffffffffffffffffffffffffffffff1673ffffffffffffffffffffffffffffffffffffffff1673ffffffffffffffffffffffffffffffffffffffff168152602001908152602001600020600001819055506001600260008060009054906101000a900473ffffffffffffffffffffffffffffffffffffffff1673ffffffffffffffffffffffffffffffffffffffff1673ffffffffffffffffffffffffffffffffffffffff16815260200190815260200160002060030160146101000a81548160ff021916908315150217905550611cca806101676000396000f3fe6080604052600436106100d0576000357c0100000000000000000000000000000000000000000000000000000000900463ffffffff168063351e1798146100d55780634c0a6af0146101d95780635a3e0328146101f05780635c19a95c146102ba578063609ff1bd1461030b57806362564c48146103d5578063789f0e3614610441578063877baa7d146104705780638f32d59b146104ab5780639e7b8d61146104da578063a45f379e1461052b578063ba7faf491461060b578063ebb75b011461063a578063ed08132914610702575b600080fd5b3480156100e157600080fd5b50610124600480360360208110156100f857600080fd5b81019080803573ffffffffffffffffffffffffffffffffffffffff1690602001909291905050506107c7565b604051808473ffffffffffffffffffffffffffffffffffffffff1673ffffffffffffffffffffffffffffffffffffffff16815260200180602001838152602001828103825284818151815260200191508051906020019080838360005b8381101561019c578082015181840152602081019050610181565b50505050905090810190601f1680156101c95780820380516001836020036101000a031916815260200191505b5094505050505060405180910390f35b3480156101e557600080fd5b506101ee6109e9565b005b3480156101fc57600080fd5b5061023f6004803603602081101561021357600080fd5b81019080803573ffffffffffffffffffffffffffffffffffffffff169060200190929190505050610a62565b6040518080602001828103825283818151815260200191508051906020019080838360005b8381101561027f578082015181840152602081019050610264565b50505050905090810190601f1680156102ac5780820380516001836020036101000a031916815260200191505b509250505060405180910390f35b3480156102c657600080fd5b50610309600480360360208110156102dd57600080fd5b81019080803573ffffffffffffffffffffffffffffffffffffffff169060200190929190505050610b4d565b005b34801561031757600080fd5b50610320611044565b604051808473ffffffffffffffffffffffffffffffffffffffff1673ffffffffffffffffffffffffffffffffffffffff16815260200180602001838152602001828103825284818151815260200191508051906020019080838360005b8381101561039857808201518184015260208101905061037d565b50505050905090810190601f1680156103c55780820380516001836020036101000a031916815260200191505b5094505050505060405180910390f35b3480156103e157600080fd5b506103ea61122e565b6040518080602001828103825283818151815260200191508051906020019060200280838360005b8381101561042d578082015181840152602081019050610412565b505050509050019250505060405180910390f35b34801561044d57600080fd5b506104566112bc565b604051808215151515815260200191505060405180910390f35b34801561047c57600080fd5b506104a96004803603602081101561049357600080fd5b81019080803590602001909291905050506112c8565b005b3480156104b757600080fd5b506104c0611349565b604051808215151515815260200191505060405180910390f35b3480156104e657600080fd5b50610529600480360360208110156104fd57600080fd5b81019080803573ffffffffffffffffffffffffffffffffffffffff1690602001909291905050506113a0565b005b34801561053757600080fd5b506105f16004803603602081101561054e57600080fd5b810190808035906020019064010000000081111561056b57600080fd5b82018360208201111561057d57600080fd5b8035906020019184600183028401116401000000008311171561059f57600080fd5b91908080601f016020809104026020016040519081016040528093929190818152602001838380828437600081840152601f19601f8201169050808301925050505050505091929192905050506114ff565b604051808215151515815260200191505060405180910390f35b34801561061757600080fd5b5061062061150c565b604051808215151515815260200191505060405180910390f35b34801561064657600080fd5b506107006004803603602081101561065d57600080fd5b810190808035906020019064010000000081111561067a57600080fd5b82018360208201111561068c57600080fd5b803590602001918460018302840111640100000000831117156106ae57600080fd5b91908080601f016020809104026020016040519081016040528093929190818152602001838380828437600081840152601f19601f820116905080830192505050505050509192919290505050611522565b005b34801561070e57600080fd5b506107c56004803603602081101561072557600080fd5b810190808035906020019064010000000081111561074257600080fd5b82018360208201111561075457600080fd5b8035906020019184602083028401116401000000008311171561077657600080fd5b919080806020026020016040519081016040528093929190818152602001838360200280828437600081840152601f19601f820116905080830192505050505050509192919290505050611750565b005b600060606000836108b1600360008373ffffffffffffffffffffffffffffffffffffffff1673ffffffffffffffffffffffffffffffffffffffff1681526020019081526020016000206001018054600181600116156101000203166002900480601f0160208091040260200160405190810160405280929190818152602001828054600181600116156101000203166002900480156108a75780601f1061087c576101008083540402835291602001916108a7565b820191906000526020600020905b81548152906001019060200180831161088a57829003601f168201915b50505050506114ff565b156108bb576109e1565b849350600360008673ffffffffffffffffffffffffffffffffffffffff1673ffffffffffffffffffffffffffffffffffffffff1681526020019081526020016000206001018054600181600116156101000203166002900480601f0160208091040260200160405190810160405280929190818152602001828054600181600116156101000203166002900480156109945780601f1061096957610100808354040283529160200191610994565b820191906000526020600020905b81548152906001019060200180831161097757829003601f168201915b50505050509250600360008673ffffffffffffffffffffffffffffffffffffffff1673ffffffffffffffffffffffffffffffffffffffff1681526020019081526020016000206000015491505b509193909250565b6000809054906101000a900473ffffffffffffffffffffffffffffffffffffffff1673ffffffffffffffffffffffffffffffffffffffff163373ffffffffffffffffffffffffffffffffffffffff16141515610a4457610a60565b6001600060146101000a81548160ff0219169083151502179055505b565b60608060146040519080825280601f01601f191660200182016040528015610a995781602001600182028038833980820191505090505b50905060008090505b6014811015610b43578060130360080260020a8473ffffffffffffffffffffffffffffffffffffffff16811515610ad557fe5b047f0100000000000000000000000000000000000000000000000000000000000000028282815181101515610b0657fe5b9060200101907effffffffffffffffffffffffffffffffffffffffffffffffffffffffffffff1916908160001a9053508080600101915050610aa2565b5080915050919050565b3360001515600060149054906101000a900460ff1615151480610b71575042600154105b80610bc85750600260008273ffffffffffffffffffffffffffffffffffffffff1673ffffffffffffffffffffffffffffffffffffffff16815260200190815260200160002060010160009054906101000a900460ff165b80610c205750600260008273ffffffffffffffffffffffffffffffffffffffff1673ffffffffffffffffffffffffffffffffffffffff16815260200190815260200160002060030160149054906101000a900460ff16155b15610c2a57611040565b6000600260003373ffffffffffffffffffffffffffffffffffffffff1673ffffffffffffffffffffffffffffffffffffffff16815260200190815260200160002090505b600073ffffffffffffffffffffffffffffffffffffffff16600260008573ffffffffffffffffffffffffffffffffffffffff1673ffffffffffffffffffffffffffffffffffffffff16815260200190815260200160002060030160009054906101000a900473ffffffffffffffffffffffffffffffffffffffff1673ffffffffffffffffffffffffffffffffffffffff1614158015610d9b57503373ffffffffffffffffffffffffffffffffffffffff16600260008573ffffffffffffffffffffffffffffffffffffffff1673ffffffffffffffffffffffffffffffffffffffff16815260200190815260200160002060030160009054906101000a900473ffffffffffffffffffffffffffffffffffffffff1673ffffffffffffffffffffffffffffffffffffffff1614155b15610e0a57600260008473ffffffffffffffffffffffffffffffffffffffff1673ffffffffffffffffffffffffffffffffffffffff16815260200190815260200160002060030160009054906101000a900473ffffffffffffffffffffffffffffffffffffffff169250610c6e565b3373ffffffffffffffffffffffffffffffffffffffff168373ffffffffffffffffffffffffffffffffffffffff161480610e97575060001515600260008573ffffffffffffffffffffffffffffffffffffffff1673ffffffffffffffffffffffffffffffffffffffff16815260200190815260200160002060030160149054906101000a900460ff161515145b15610ea2575061103f565b60018160010160006101000a81548160ff021916908315150217905550828160030160006101000a81548173ffffffffffffffffffffffffffffffffffffffff021916908373ffffffffffffffffffffffffffffffffffffffff1602179055506000600260008573ffffffffffffffffffffffffffffffffffffffff1673ffffffffffffffffffffffffffffffffffffffff16815260200190815260200160002090508060010160009054906101000a900460ff16156110255760008090505b81600201805490508160ff16101561101f5782600001548160ff16600480549050030260036000846002018460ff16815481101515610f9d57fe5b9060005260206000200160009054906101000a900473ffffffffffffffffffffffffffffffffffffffff1673ffffffffffffffffffffffffffffffffffffffff1673ffffffffffffffffffffffffffffffffffffffff168152602001908152602001600020600001600082825401925050819055508080600101915050610f62565b5061103c565b816000015481600001600082825401925050819055505b50505b5b5050565b600060606000806000905060008090505b6004805490508160ff16101561122757600060048260ff1681548110151561107957fe5b9060005260206000200160009054906101000a900473ffffffffffffffffffffffffffffffffffffffff16905082600360008373ffffffffffffffffffffffffffffffffffffffff1673ffffffffffffffffffffffffffffffffffffffff16815260200190815260200160002060000154111561121957600360008273ffffffffffffffffffffffffffffffffffffffff1673ffffffffffffffffffffffffffffffffffffffff168152602001908152602001600020600001549250809550600360008273ffffffffffffffffffffffffffffffffffffffff1673ffffffffffffffffffffffffffffffffffffffff1681526020019081526020016000206001018054600181600116156101000203166002900480601f01602080910402602001604051908101604052809291908181526020018280546001816001161561010002031660029004801561120e5780601f106111e35761010080835404028352916020019161120e565b820191906000526020600020905b8154815290600101906020018083116111f157829003601f168201915b505050505094508293505b508080600101915050611055565b5050909192565b606060048054806020026020016040519081016040528092919081815260200182805480156112b257602002820191906000526020600020905b8160009054906101000a900473ffffffffffffffffffffffffffffffffffffffff1673ffffffffffffffffffffffffffffffffffffffff1681526020019060010190808311611268575b5050505050905090565b60006001544211905090565b6000809054906101000a900473ffffffffffffffffffffffffffffffffffffffff1673ffffffffffffffffffffffffffffffffffffffff163373ffffffffffffffffffffffffffffffffffffffff1614151561132357611346565b806001819055506001600060146101000a81548160ff0219169083151502179055505b50565b60008060009054906101000a900473ffffffffffffffffffffffffffffffffffffffff1673ffffffffffffffffffffffffffffffffffffffff163373ffffffffffffffffffffffffffffffffffffffff1614905090565b6000809054906101000a900473ffffffffffffffffffffffffffffffffffffffff1673ffffffffffffffffffffffffffffffffffffffff163373ffffffffffffffffffffffffffffffffffffffff161415156113fb576114fc565b80600260008273ffffffffffffffffffffffffffffffffffffffff1673ffffffffffffffffffffffffffffffffffffffff16815260200190815260200160002060010160009054906101000a900460ff1615611456576114fa565b6001600260008473ffffffffffffffffffffffffffffffffffffffff1673ffffffffffffffffffffffffffffffffffffffff168152602001908152602001600020600001819055506001600260008473ffffffffffffffffffffffffffffffffffffffff1673ffffffffffffffffffffffffffffffffffffffff16815260200190815260200160002060030160146101000a81548160ff0219169083151502179055505b505b50565b6000808251149050919050565b60008060149054906101000a900460ff16905090565b600060149054906101000a900460ff168061162357506000151561161f600360003373ffffffffffffffffffffffffffffffffffffffff1673ffffffffffffffffffffffffffffffffffffffff1681526020019081526020016000206001018054600181600116156101000203166002900480601f0160208091040260200160405190810160405280929190818152602001828054600181600116156101000203166002900480156116155780601f106115ea57610100808354040283529160200191611615565b820191906000526020600020905b8154815290600101906020018083116115f857829003601f168201915b50505050506114ff565b1515145b1561162d5761174d565b60043390806001815401808255809150509060018203906000526020600020016000909192909190916101000a81548173ffffffffffffffffffffffffffffffffffffffff021916908373ffffffffffffffffffffffffffffffffffffffff160217905550506000600360003373ffffffffffffffffffffffffffffffffffffffff1673ffffffffffffffffffffffffffffffffffffffff168152602001908152602001600020600001819055506116e4816114ff565b156116f5576116f233610a62565b90505b80600360003373ffffffffffffffffffffffffffffffffffffffff1673ffffffffffffffffffffffffffffffffffffffff168152602001908152602001600020600101908051906020019061174b929190611b2c565b505b50565b3360001515600060149054906101000a900460ff1615151480611774575042600154105b806117cb5750600260008273ffffffffffffffffffffffffffffffffffffffff1673ffffffffffffffffffffffffffffffffffffffff16815260200190815260200160002060010160009054906101000a900460ff165b806118235750600260008273ffffffffffffffffffffffffffffffffffffffff1673ffffffffffffffffffffffffffffffffffffffff16815260200190815260200160002060030160149054906101000a900460ff16155b1561182d57611b28565b81600480549050815114151561184257611b26565b60008090505b81518160ff161015611a1457600080905060008090505b83518160ff1610156118e957838360ff1681518110151561187c57fe5b9060200190602002015173ffffffffffffffffffffffffffffffffffffffff16848260ff168151811015156118ad57fe5b9060200190602002015173ffffffffffffffffffffffffffffffffffffffff1614156118dc5781806001019250505b808060010191505061185f565b5060018160ff1611156118fd575050611b26565b6119fa60036000858560ff1681518110151561191557fe5b9060200190602002015173ffffffffffffffffffffffffffffffffffffffff1673ffffffffffffffffffffffffffffffffffffffff1681526020019081526020016000206001018054600181600116156101000203166002900480601f0160208091040260200160405190810160405280929190818152602001828054600181600116156101000203166002900480156119f05780601f106119c5576101008083540402835291602001916119f0565b820191906000526020600020905b8154815290600101906020018083116119d357829003601f168201915b50505050506114ff565b15611a06575050611b26565b508080600101915050611848565b506000600260003373ffffffffffffffffffffffffffffffffffffffff1673ffffffffffffffffffffffffffffffffffffffff168152602001908152602001600020905060018160010160006101000a81548160ff02191690831515021790555083816002019080519060200190611a8d929190611bac565b5060008090505b84518160ff161015611b235781600001548160ff168651030260036000878460ff16815181101515611ac257fe5b9060200190602002015173ffffffffffffffffffffffffffffffffffffffff1673ffffffffffffffffffffffffffffffffffffffff168152602001908152602001600020600001600082825401925050819055508080600101915050611a94565b50505b505b5050565b828054600181600116156101000203166002900490600052602060002090601f016020900481019282601f10611b6d57805160ff1916838001178555611b9b565b82800160010185558215611b9b579182015b82811115611b9a578251825591602001919060010190611b7f565b5b509050611ba89190611c36565b5090565b828054828255906000526020600020908101928215611c25579160200282015b82811115611c245782518260006101000a81548173ffffffffffffffffffffffffffffffffffffffff021916908373ffffffffffffffffffffffffffffffffffffffff16021790555091602001919060010190611bcc565b5b509050611c329190611c5b565b5090565b611c5891905b80821115611c54576000816000905550600101611c3c565b5090565b90565b611c9b91905b80821115611c9757600081816101000a81549073ffffffffffffffffffffffffffffffffffffffff021916905550600101611c61565b5090565b9056fea165627a7a723058205215a18a168049610ee11cb2982038dcd96255ec7f5bdfc6ec751b14c79cb5fb0029",
  "source": "pragma solidity >=0.5 <0.6.0;\n\nimport \"./VoteContractInterface.sol\";\n\ncontract DeBordaVoteContract is VoteContractInterface {\n\n    constructor() public {\n        owner = msg.sender;\n        voters[owner].weight = 1;\n        voters[owner].canVote = true;\n    }\n\n    function candidateAsProposal(string memory name) mayBeCandidate public {\n        proposalsAddresses.push(msg.sender);\n        proposals[msg.sender].voteCount = 0;\n        if (isEmptyString(name)) {\n            name = fromAddressToString(msg.sender);\n        }\n        proposals[msg.sender].name = name;\n    }\n\n    // Give $(toVoter) the right to vote.\n    // May only be called by $(owner).\n    function giveRightToVote(address toVoter) public onlyOwner hasNotVotedYet(toVoter) {\n        voters[toVoter].weight = 1;\n        voters[toVoter].canVote = true;\n    }\n\n    // Delegate sender's vote to the voter $(to).\n    function delegate(address to) public mayVote(msg.sender) {\n        Voter storage sender = voters[msg.sender];\n\n        while (voters[to].delegate != address(0) && voters[to].delegate != msg.sender)\n            to = voters[to].delegate;\n        if (to == msg.sender || voters[to].canVote == false) return;\n        sender.voted = true;\n        sender.delegate = to;\n        Voter storage delegateTo = voters[to];\n        if (delegateTo.voted) {\n            for (uint8 i = 0; i < delegateTo.vote.length; i++) {\n                proposals[delegateTo.vote[i]].voteCount += (proposalsAddresses.length - i) * sender.weight;\n            }\n        }\n        else {\n            delegateTo.weight += sender.weight;\n        }\n    }\n\n    // Vote for proposals\n    function vote(address[] memory proposalsInOrder) public mayVote(msg.sender) arePossibleProposals(proposalsInOrder) {\n        Voter storage sender = voters[msg.sender];\n        sender.voted = true;\n        sender.vote = proposalsInOrder;\n        for (uint8 i = 0; i < proposalsInOrder.length; i++) {\n            proposals[proposalsInOrder[i]].voteCount += (proposalsInOrder.length - i) * sender.weight;\n        }\n    }\n\n    // Retrieve data for one proposal $(proposalId)\n    function getProposalData(address proposalId) public view isOneOfPossibleProposal(proposalId) returns (address id, string memory name, uint voteCount) {\n        id = proposalId;\n        name = proposals[proposalId].name;\n        voteCount = proposals[proposalId].voteCount;\n    }\n\n    function getProposals() public view returns (address[] memory proposals) {\n        return proposalsAddresses;\n    }\n\n    function winningProposal() public view returns (address winningProposalAddress, string memory winningProposalName, uint winningProposalVoteCount) {\n        uint256 winningVoteCount = 0;\n        for (uint8 proposalIndex = 0; proposalIndex < proposalsAddresses.length; proposalIndex++) {\n            address proposalAddress = proposalsAddresses[proposalIndex];\n            if (proposals[proposalAddress].voteCount > winningVoteCount) {\n                winningVoteCount = proposals[proposalAddress].voteCount;\n                winningProposalAddress = proposalAddress;\n                winningProposalName = proposals[proposalAddress].name;\n                winningProposalVoteCount = winningVoteCount;\n            }\n        }\n    }\n}\n",
  "sourcePath": "/Users/candiceguitton/www/blockchain_vote_dapp/contracts/DeBordaVoteContract.sol",
  "compiler": {
    "name": "solc",
    "version": "0.5.0+commit.1d4f565a.Emscripten.clang"
  },
  "schemaVersion": "3.0.1",
  "updatedAt": "2019-01-17T21:55:32.166Z",
  "devdoc": {
    "methods": {}
  },
  "userdoc": {
    "methods": {
      "fromAddressToString(address)": {
        "notice": "//////////////////////////////////////////"
      },
      "startVoteAndSetDate(uint256)": {
        "notice": "//////////////////////////////////////////"
      }
    }
  }
}