{
  "contractName": "VoteContractInterface",
  "abi": [
    {
      "constant": false,
      "inputs": [
        {
          "name": "timeStamp",
          "type": "uint256"
        }
      ],
      "name": "startVoteAndSetDate",
      "outputs": [],
      "payable": false,
      "stateMutability": "nonpayable",
      "type": "function"
    },
    {
      "constant": false,
      "inputs": [],
      "name": "startVote",
      "outputs": [],
      "payable": false,
      "stateMutability": "nonpayable",
      "type": "function"
    },
    {
      "constant": true,
      "inputs": [],
      "name": "isVoteStarted",
      "outputs": [
        {
          "name": "",
          "type": "bool"
        }
      ],
      "payable": false,
      "stateMutability": "view",
      "type": "function"
    },
    {
      "constant": true,
      "inputs": [],
      "name": "isOwner",
      "outputs": [
        {
          "name": "",
          "type": "bool"
        }
      ],
      "payable": false,
      "stateMutability": "view",
      "type": "function"
    },
    {
      "constant": true,
      "inputs": [
        {
          "name": "x",
          "type": "address"
        }
      ],
      "name": "fromAddressToString",
      "outputs": [
        {
          "name": "",
          "type": "string"
        }
      ],
      "payable": false,
      "stateMutability": "pure",
      "type": "function"
    },
    {
      "constant": true,
      "inputs": [
        {
          "name": "text",
          "type": "string"
        }
      ],
      "name": "isEmptyString",
      "outputs": [
        {
          "name": "",
          "type": "bool"
        }
      ],
      "payable": false,
      "stateMutability": "pure",
      "type": "function"
    }
  ],
  "bytecode": "0x608060405260008060146101000a81548160ff021916908315150217905550635c5ed4f960015534801561003257600080fd5b506104e8806100426000396000f300608060405260043610610078576000357c0100000000000000000000000000000000000000000000000000000000900463ffffffff1680634c0a6af01461007d5780635a3e032814610094578063877baa7d146101505780638f32d59b1461017d578063a45f379e146101ac578063ba7faf491461022d575b600080fd5b34801561008957600080fd5b5061009261025c565b005b3480156100a057600080fd5b506100d5600480360381019080803573ffffffffffffffffffffffffffffffffffffffff1690602001909291905050506102d5565b6040518080602001828103825283818151815260200191508051906020019080838360005b838110156101155780820151818401526020810190506100fa565b50505050905090810190601f1680156101425780820380516001836020036101000a031916815260200191505b509250505060405180910390f35b34801561015c57600080fd5b5061017b600480360381019080803590602001909291905050506103c1565b005b34801561018957600080fd5b50610192610442565b604051808215151515815260200191505060405180910390f35b3480156101b857600080fd5b50610213600480360381019080803590602001908201803590602001908080601f0160208091040260200160405190810160405280939291908181526020018383808284378201915050505050509192919290505050610499565b604051808215151515815260200191505060405180910390f35b34801561023957600080fd5b506102426104a6565b604051808215151515815260200191505060405180910390f35b6000809054906101000a900473ffffffffffffffffffffffffffffffffffffffff1673ffffffffffffffffffffffffffffffffffffffff163373ffffffffffffffffffffffffffffffffffffffff161415156102b7576102d3565b6001600060146101000a81548160ff0219169083151502179055505b565b606080600060146040519080825280601f01601f19166020018201604052801561030e5781602001602082028038833980820191505090505b509150600090505b60148110156103b7578060130360080260020a8473ffffffffffffffffffffffffffffffffffffffff1681151561034957fe5b047f010000000000000000000000000000000000000000000000000000000000000002828281518110151561037a57fe5b9060200101907effffffffffffffffffffffffffffffffffffffffffffffffffffffffffffff1916908160001a9053508080600101915050610316565b8192505050919050565b6000809054906101000a900473ffffffffffffffffffffffffffffffffffffffff1673ffffffffffffffffffffffffffffffffffffffff163373ffffffffffffffffffffffffffffffffffffffff1614151561041c5761043f565b806001819055506001600060146101000a81548160ff0219169083151502179055505b50565b60008060009054906101000a900473ffffffffffffffffffffffffffffffffffffffff1673ffffffffffffffffffffffffffffffffffffffff163373ffffffffffffffffffffffffffffffffffffffff1614905090565b6000808251149050919050565b60008060149054906101000a900460ff169050905600a165627a7a72305820f491677d3e5df358198c1748245bdfc490a995a2a44913b14f881bb7fd9b8bc50029",
  "source": "pragma solidity >=0.4.22 <0.6.0;\n\n\ncontract VoteContractInterface {\n\n    /////////////////////////////////////////////\n    // Structs\n    /////////////////////////////////////////////\n\n    struct Voter {\n        uint weight;\n        bool voted;\n        address[] vote;\n        address delegate;\n        bool canVote;\n    }\n\n    struct Proposal {\n        uint voteCount;\n        string name;\n    }\n\n    /////////////////////////////////////////////\n    // Fields\n    /////////////////////////////////////////////\n\n    address owner;\n    bool hasVoteStarted = false;\n    // Dummy Date in order to give a \"fake\" vote ending\n    // Saturday 9 February 2019 13:26:17\n    uint voteEndTimestamp = 1549718777;\n    mapping(address => Voter) voters;\n    mapping(address => Proposal) proposals;\n    address[] proposalsAddresses;\n\n\n    /////////////////////////////////////////////\n    // Modififiers\n    /////////////////////////////////////////////\n\n    // Accessible only if the caller is the owner\n    modifier onlyOwner() {\n        if (msg.sender != owner) return;\n        _;\n    }\n\n    // Accessible only if voter has not voted yet\n    modifier hasNotVotedYet(address voter) {\n        if (voters[voter].voted) return;\n        _;\n    }\n\n    // Accessible only if voter is enable to vote\n    modifier mayVote(address voter) {\n        if (hasVoteStarted == false || voteEndTimestamp < now || voters[voter].voted || !voters[voter].canVote) return;\n        _;\n    }\n\n    // Accessible only if the proposalId is one of the\n    // possible proposals\n    modifier isOneOfPossibleProposal(address proposalAddress) {\n        if (isEmptyString(proposals[proposalAddress].name)) return;\n        _;\n    }\n\n    // Accessible only if all the proposals are in array\n    modifier arePossibleProposals(address[] p) {\n        if (p.length != proposalsAddresses.length) return;\n\n        for (uint8 i = 0; i < p.length; i++) {\n            // Look for unique proposals (can't vote twice for same candidate)\n            uint8 count = 0;\n            for (uint8 j = 0; j < p.length; j++) {\n                if (p[j] == p[i]) count++;\n            }\n            if (count > 1) return;\n            if (isEmptyString(proposals[p[i]].name)) return;\n        }\n        _;\n    }\n\n    // May be candidate only if vote has not started or if not already candidate\n    modifier mayBeCandidate() {\n        if (hasVoteStarted || isEmptyString(proposals[msg.sender].name) == false) return;\n        _;\n    }\n\n    /////////////////////////////////////////////\n    // Common methods\n    /////////////////////////////////////////////\n\n    // This timeStamp is only on demo purpose, to show that nobody can vote after the ending date\n    // Must be remove for production because owner would be too powerful\n    function startVoteAndSetDate(uint timeStamp) onlyOwner public {\n        voteEndTimestamp = timeStamp;\n        hasVoteStarted = true;\n    }\n    // This function is the good one to keep on production\n    // It does not override already set Ending Date\n    function startVote() onlyOwner public {\n        hasVoteStarted = true;\n    }\n\n    function isVoteStarted() public view returns (bool) {\n        return hasVoteStarted;\n    }\n\n    function isOwner() public view returns (bool) {\n        return msg.sender == owner;\n    }\n\n    /////////////////////////////////////////////\n    // Utils methods\n    /////////////////////////////////////////////\n\n    function fromAddressToString(address x) pure public returns (string) {\n        bytes memory b = new bytes(20);\n        for (uint i = 0; i < 20; i++)\n            b[i] = byte(uint8(uint(x) / (2 ** (8 * (19 - i)))));\n        return string(b);\n    }\n\n    function isEmptyString(string text) pure public returns (bool) {\n        return bytes(text).length == 0;\n    }\n}\n",
  "sourcePath": "/Users/thomasecalle/Development/blockchain/vote-project/contracts/VoteContractInterface.sol",
  "compiler": {
    "name": "solc",
    "version": "0.4.24+commit.e67f0147.Emscripten.clang"
  },
  "schemaVersion": "2.0.1",
  "updatedAt": "2019-01-09T13:36:45.983Z"
}