{
  "contractName": "VoteContract",
  "abi": [
    {
      "inputs": [
        {
          "name": "_numProposals",
          "type": "uint8"
        }
      ],
      "payable": false,
      "stateMutability": "nonpayable",
      "type": "constructor"
    },
    {
      "constant": false,
      "inputs": [
        {
          "name": "toVoter",
          "type": "address"
        }
      ],
      "name": "giveRightToVote",
      "outputs": [],
      "payable": false,
      "stateMutability": "nonpayable",
      "type": "function"
    },
    {
      "constant": false,
      "inputs": [
        {
          "name": "to",
          "type": "address"
        }
      ],
      "name": "delegate",
      "outputs": [],
      "payable": false,
      "stateMutability": "nonpayable",
      "type": "function"
    },
    {
      "constant": false,
      "inputs": [
        {
          "name": "toProposal",
          "type": "uint8"
        }
      ],
      "name": "vote",
      "outputs": [],
      "payable": false,
      "stateMutability": "nonpayable",
      "type": "function"
    },
    {
      "constant": true,
      "inputs": [
        {
          "name": "proposalId",
          "type": "uint8"
        }
      ],
      "name": "getProposalData",
      "outputs": [
        {
          "name": "id",
          "type": "uint8"
        },
        {
          "name": "voteCount",
          "type": "uint256"
        }
      ],
      "payable": false,
      "stateMutability": "view",
      "type": "function"
    },
    {
      "constant": true,
      "inputs": [],
      "name": "winningProposal",
      "outputs": [
        {
          "name": "winningProposalId",
          "type": "uint8"
        },
        {
          "name": "winningProposalVoteCount",
          "type": "uint256"
        }
      ],
      "payable": false,
      "stateMutability": "view",
      "type": "function"
    }
  ],
  "bytecode": "0x608060405234801561001057600080fd5b50604051602080610b2183398101806040528101908080519060200190929190505050336000806101000a81548173ffffffffffffffffffffffffffffffffffffffff021916908373ffffffffffffffffffffffffffffffffffffffff16021790555060018060008060009054906101000a900473ffffffffffffffffffffffffffffffffffffffff1673ffffffffffffffffffffffffffffffffffffffff1673ffffffffffffffffffffffffffffffffffffffff1681526020019081526020016000206000018190555060018060008060009054906101000a900473ffffffffffffffffffffffffffffffffffffffff1673ffffffffffffffffffffffffffffffffffffffff1673ffffffffffffffffffffffffffffffffffffffff16815260200190815260200160002060010160166101000a81548160ff0219169083151502179055508060ff16600281610167919061016e565b50506101c1565b81548183558181111561019557818360005260206000209182019101610194919061019a565b5b505050565b6101be91905b808211156101ba57600080820160009055506001016101a0565b5090565b90565b610951806101d06000396000f30060806040526004361061006d576000357c0100000000000000000000000000000000000000000000000000000000900463ffffffff1680635c19a95c14610072578063609ff1bd146100b55780636878daa1146100ed5780639e7b8d611461013e578063b3f98adc14610181575b600080fd5b34801561007e57600080fd5b506100b3600480360381019080803573ffffffffffffffffffffffffffffffffffffffff1690602001909291905050506101b1565b005b3480156100c157600080fd5b506100ca610581565b604051808360ff1660ff1681526020018281526020019250505060405180910390f35b3480156100f957600080fd5b5061011b600480360381019080803560ff169060200190929190505050610603565b604051808360ff1660ff1681526020018281526020019250505060405180910390f35b34801561014a57600080fd5b5061017f600480360381019080803573ffffffffffffffffffffffffffffffffffffffff169060200190929190505050610649565b005b34801561018d57600080fd5b506101af600480360381019080803560ff1690602001909291905050506107a5565b005b600080600160003373ffffffffffffffffffffffffffffffffffffffff1673ffffffffffffffffffffffffffffffffffffffff16815260200190815260200160002091508160010160009054906101000a900460ff16806102275750600015158260010160169054906101000a900460ff161515145b156102315761057c565b5b600073ffffffffffffffffffffffffffffffffffffffff16600160008573ffffffffffffffffffffffffffffffffffffffff1673ffffffffffffffffffffffffffffffffffffffff16815260200190815260200160002060010160029054906101000a900473ffffffffffffffffffffffffffffffffffffffff1673ffffffffffffffffffffffffffffffffffffffff161415801561035f57503373ffffffffffffffffffffffffffffffffffffffff16600160008573ffffffffffffffffffffffffffffffffffffffff1673ffffffffffffffffffffffffffffffffffffffff16815260200190815260200160002060010160029054906101000a900473ffffffffffffffffffffffffffffffffffffffff1673ffffffffffffffffffffffffffffffffffffffff1614155b156103ce57600160008473ffffffffffffffffffffffffffffffffffffffff1673ffffffffffffffffffffffffffffffffffffffff16815260200190815260200160002060010160029054906101000a900473ffffffffffffffffffffffffffffffffffffffff169250610232565b3373ffffffffffffffffffffffffffffffffffffffff168373ffffffffffffffffffffffffffffffffffffffff16148061045b575060001515600160008573ffffffffffffffffffffffffffffffffffffffff1673ffffffffffffffffffffffffffffffffffffffff16815260200190815260200160002060010160169054906101000a900460ff161515145b156104655761057c565b60018260010160006101000a81548160ff021916908315150217905550828260010160026101000a81548173ffffffffffffffffffffffffffffffffffffffff021916908373ffffffffffffffffffffffffffffffffffffffff160217905550600160008473ffffffffffffffffffffffffffffffffffffffff1673ffffffffffffffffffffffffffffffffffffffff16815260200190815260200160002090508060010160009054906101000a900460ff161561056457816000015460028260010160019054906101000a900460ff1660ff1681548110151561054557fe5b906000526020600020016000016000828254019250508190555061057b565b816000015481600001600082825401925050819055505b5b505050565b60008060008060009150600090505b6002805490508160ff1610156105fd578160028260ff168154811015156105b357fe5b906000526020600020016000015411156105f05760028160ff168154811015156105d957fe5b906000526020600020016000015491508093508192505b8080600101915050610590565b50509091565b600080826002805490508160ff1610151561061d57610643565b83925060028460ff1681548110151561063257fe5b906000526020600020016000015491505b50915091565b6000809054906101000a900473ffffffffffffffffffffffffffffffffffffffff1673ffffffffffffffffffffffffffffffffffffffff163373ffffffffffffffffffffffffffffffffffffffff161415156106a457600080fd5b80600160008273ffffffffffffffffffffffffffffffffffffffff1673ffffffffffffffffffffffffffffffffffffffff16815260200190815260200160002060010160009054906101000a900460ff16156106ff576107a1565b60018060008473ffffffffffffffffffffffffffffffffffffffff1673ffffffffffffffffffffffffffffffffffffffff1681526020019081526020016000206000018190555060018060008473ffffffffffffffffffffffffffffffffffffffff1673ffffffffffffffffffffffffffffffffffffffff16815260200190815260200160002060010160166101000a81548160ff0219169083151502179055505b5050565b600033600160008273ffffffffffffffffffffffffffffffffffffffff1673ffffffffffffffffffffffffffffffffffffffff16815260200190815260200160002060010160009054906101000a900460ff16806108505750600160008273ffffffffffffffffffffffffffffffffffffffff1673ffffffffffffffffffffffffffffffffffffffff16815260200190815260200160002060010160169054906101000a900460ff16155b1561085a57610920565b826002805490508160ff161015156108715761091e565b600160003373ffffffffffffffffffffffffffffffffffffffff1673ffffffffffffffffffffffffffffffffffffffff168152602001908152602001600020925060018360010160006101000a81548160ff021916908315150217905550838360010160016101000a81548160ff021916908360ff160217905550826000015460028560ff1681548110151561090357fe5b90600052602060002001600001600082825401925050819055505b505b5050505600a165627a7a72305820eb2d8b9323d823fd59fece9bb8969e05d0647d47c47a28cace3265d68910d5ae0029",
  "source": "pragma solidity >=0.4.22 <0.6.0;\n\ncontract VoteContract {\n\n    struct Voter {\n        uint weight;\n        bool voted;\n        uint8 vote;\n        address delegate;\n        bool canVote;\n    }\n\n    struct Proposal {\n        uint voteCount;\n    }\n\n    modifier onlyOwner() {\n        require(msg.sender == _owner);\n        _;\n    }\n\n    modifier hasNotVotedYet(address voter) {\n        if (voters[voter].voted) return;\n        _;\n    }\n\n    modifier mayVote(address voter) {\n        if (voters[voter].voted || !voters[voter].canVote) return;\n        _;\n    }\n\n    modifier isPossibleProposal(uint8 proposalId) {\n        if (proposalId >= proposals.length) return;\n        _;\n    }\n\n    address _owner;\n    mapping(address => Voter) voters;\n    Proposal[] proposals;\n\n    // Create a new ballot with $(_numProposals) different proposals.\n    constructor(uint8 _numProposals) public {\n        _owner = msg.sender;\n        voters[_owner].weight = 1;\n        voters[_owner].canVote = true;\n        proposals.length = _numProposals;\n    }\n\n    // Give $(toVoter) the right to vote on this ballot.\n    // May only be called by $(owner).\n    function giveRightToVote(address toVoter) public onlyOwner hasNotVotedYet(toVoter) {\n        voters[toVoter].weight = 1;\n        voters[toVoter].canVote = true;\n    }\n\n    /// Delegate your vote to the voter $(to).\n    function delegate(address to) public {\n        Voter storage sender = voters[msg.sender];\n        // assigns reference\n        if (sender.voted || sender.canVote == false) return;\n        while (voters[to].delegate != address(0) && voters[to].delegate != msg.sender)\n            to = voters[to].delegate;\n        if (to == msg.sender || voters[to].canVote == false) return;\n        sender.voted = true;\n        sender.delegate = to;\n        Voter storage delegateTo = voters[to];\n        if (delegateTo.voted)\n            proposals[delegateTo.vote].voteCount += sender.weight;\n        else\n            delegateTo.weight += sender.weight;\n    }\n\n    // Give a single vote to proposal $(toProposal).\n    function vote(uint8 toProposal) public mayVote(msg.sender) isPossibleProposal(toProposal) {\n        Voter storage sender = voters[msg.sender];\n        sender.voted = true;\n        sender.vote = toProposal;\n        proposals[toProposal].voteCount += sender.weight;\n    }\n\n    // Retrieve data for one proposal $(proposalId)\n    function getProposalData(uint8 proposalId) public view isPossibleProposal(proposalId) returns (uint8 id, uint voteCount) {\n        id = proposalId;\n        voteCount = proposals[proposalId].voteCount;\n    }\n\n    function winningProposal() public view returns (uint8 winningProposalId, uint winningProposalVoteCount) {\n        uint256 winningVoteCount = 0;\n        for (uint8 prop = 0; prop < proposals.length; prop++) {\n            if (proposals[prop].voteCount > winningVoteCount) {\n                winningVoteCount = proposals[prop].voteCount;\n                winningProposalId = prop;\n                winningProposalVoteCount = winningVoteCount;\n            }\n        }\n    }\n}\n",
  "sourcePath": "/Users/thomasecalle/Development/blockchain/vote-project/contracts/VoteContract.sol",
  "compiler": {
    "name": "solc",
    "version": "0.4.24+commit.e67f0147.Emscripten.clang"
  },
  "schemaVersion": "2.0.1",
  "updatedAt": "2018-12-30T14:09:04.059Z"
}