{
  "contractName": "VoteContractInterface",
  "abi": [
    {
      "constant": false,
      "inputs": [],
      "name": "stopVote",
      "outputs": [],
      "payable": false,
      "stateMutability": "nonpayable",
      "type": "function"
    },
    {
      "constant": false,
      "inputs": [],
      "name": "startVote",
      "outputs": [],
      "payable": false,
      "stateMutability": "nonpayable",
      "type": "function"
    },
    {
      "constant": true,
      "inputs": [],
      "name": "isVoteStarted",
      "outputs": [
        {
          "name": "",
          "type": "bool"
        }
      ],
      "payable": false,
      "stateMutability": "view",
      "type": "function"
    },
    {
      "constant": true,
      "inputs": [],
      "name": "isVoteEnded",
      "outputs": [
        {
          "name": "",
          "type": "bool"
        }
      ],
      "payable": false,
      "stateMutability": "view",
      "type": "function"
    },
    {
      "constant": true,
      "inputs": [],
      "name": "isOwner",
      "outputs": [
        {
          "name": "",
          "type": "bool"
        }
      ],
      "payable": false,
      "stateMutability": "view",
      "type": "function"
    },
    {
      "constant": true,
      "inputs": [],
      "name": "hasUserVotedYet",
      "outputs": [
        {
          "name": "",
          "type": "bool"
        }
      ],
      "payable": false,
      "stateMutability": "view",
      "type": "function"
    },
    {
      "constant": true,
      "inputs": [],
      "name": "isUserProposalYet",
      "outputs": [
        {
          "name": "",
          "type": "bool"
        }
      ],
      "payable": false,
      "stateMutability": "view",
      "type": "function"
    },
    {
      "constant": true,
      "inputs": [],
      "name": "isUserAbleToVote",
      "outputs": [
        {
          "name": "",
          "type": "bool"
        }
      ],
      "payable": false,
      "stateMutability": "view",
      "type": "function"
    },
    {
      "constant": true,
      "inputs": [
        {
          "name": "x",
          "type": "address"
        }
      ],
      "name": "fromAddressToString",
      "outputs": [
        {
          "name": "",
          "type": "string"
        }
      ],
      "payable": false,
      "stateMutability": "pure",
      "type": "function"
    },
    {
      "constant": true,
      "inputs": [
        {
          "name": "text",
          "type": "string"
        }
      ],
      "name": "isEmptyString",
      "outputs": [
        {
          "name": "",
          "type": "bool"
        }
      ],
      "payable": false,
      "stateMutability": "pure",
      "type": "function"
    }
  ],
  "bytecode": "0x608060405260008060146101000a81548160ff021916908315150217905550635c5ed4f960015534801561003257600080fd5b50610829806100426000396000f3fe6080604052600436106100a4576000357c0100000000000000000000000000000000000000000000000000000000900463ffffffff1680632495c0ce146100a95780634c0a6af0146100c057806359bf9ec6146100d75780635a3e032814610106578063789f0e36146101d05780638f32d59b146101ff578063a45f379e1461022e578063ba7faf491461030e578063d37c900e1461033d578063db4d5b481461036c575b600080fd5b3480156100b557600080fd5b506100be61039b565b005b3480156100cc57600080fd5b506100d561041b565b005b3480156100e357600080fd5b506100ec610494565b604051808215151515815260200191505060405180910390f35b34801561011257600080fd5b506101556004803603602081101561012957600080fd5b81019080803573ffffffffffffffffffffffffffffffffffffffff16906020019092919050505061054a565b6040518080602001828103825283818151815260200191508051906020019080838360005b8381101561019557808201518184015260208101905061017a565b50505050905090810190601f1680156101c25780820380516001836020036101000a031916815260200191505b509250505060405180910390f35b3480156101dc57600080fd5b506101e5610635565b604051808215151515815260200191505060405180910390f35b34801561020b57600080fd5b50610214610641565b604051808215151515815260200191505060405180910390f35b34801561023a57600080fd5b506102f46004803603602081101561025157600080fd5b810190808035906020019064010000000081111561026e57600080fd5b82018360208201111561028057600080fd5b803590602001918460018302840111640100000000831117156102a257600080fd5b91908080601f016020809104026020016040519081016040528093929190818152602001838380828437600081840152601f19601f820116905080830192505050505050509192919290505050610698565b604051808215151515815260200191505060405180910390f35b34801561031a57600080fd5b506103236106a5565b604051808215151515815260200191505060405180910390f35b34801561034957600080fd5b506103526106bb565b604051808215151515815260200191505060405180910390f35b34801561037857600080fd5b50610381610712565b604051808215151515815260200191505060405180910390f35b6000809054906101000a900473ffffffffffffffffffffffffffffffffffffffff1673ffffffffffffffffffffffffffffffffffffffff163373ffffffffffffffffffffffffffffffffffffffff161415156103f657610419565b600060018190555060008060146101000a81548160ff0219169083151502179055505b565b6000809054906101000a900473ffffffffffffffffffffffffffffffffffffffff1673ffffffffffffffffffffffffffffffffffffffff163373ffffffffffffffffffffffffffffffffffffffff1614151561047657610492565b6001600060146101000a81548160ff0219169083151502179055505b565b6000600260003373ffffffffffffffffffffffffffffffffffffffff1673ffffffffffffffffffffffffffffffffffffffff16815260200190815260200160002060030160149054906101000a900460ff168015610545575060001515600260003373ffffffffffffffffffffffffffffffffffffffff1673ffffffffffffffffffffffffffffffffffffffff16815260200190815260200160002060010160009054906101000a900460ff161515145b905090565b60608060146040519080825280601f01601f1916602001820160405280156105815781602001600182028038833980820191505090505b50905060008090505b601481101561062b578060130360080260020a8473ffffffffffffffffffffffffffffffffffffffff168115156105bd57fe5b047f01000000000000000000000000000000000000000000000000000000000000000282828151811015156105ee57fe5b9060200101907effffffffffffffffffffffffffffffffffffffffffffffffffffffffffffff1916908160001a905350808060010191505061058a565b5080915050919050565b60006001544211905090565b60008060009054906101000a900473ffffffffffffffffffffffffffffffffffffffff1673ffffffffffffffffffffffffffffffffffffffff163373ffffffffffffffffffffffffffffffffffffffff1614905090565b6000808251149050919050565b60008060149054906101000a900460ff16905090565b6000600260003373ffffffffffffffffffffffffffffffffffffffff1673ffffffffffffffffffffffffffffffffffffffff16815260200190815260200160002060010160009054906101000a900460ff16905090565b60006107f7600360003373ffffffffffffffffffffffffffffffffffffffff1673ffffffffffffffffffffffffffffffffffffffff1681526020019081526020016000206001018054600181600116156101000203166002900480601f0160208091040260200160405190810160405280929190818152602001828054600181600116156101000203166002900480156107ed5780601f106107c2576101008083540402835291602001916107ed565b820191906000526020600020905b8154815290600101906020018083116107d057829003601f168201915b5050505050610698565b1590509056fea165627a7a7230582056fa7bc41b195f52cd74779314250983512125ead0b75c318c134521d1d19b880029",
  "source": "pragma solidity >=0.5 <0.6.0;\n\n\ncontract VoteContractInterface {\n\n    /////////////////////////////////////////////\n    // Structs\n    /////////////////////////////////////////////\n\n    struct Voter {\n        uint weight;\n        bool voted;\n        address[] vote;\n        address delegate;\n        bool canVote;\n    }\n\n    struct Proposal {\n        uint voteCount;\n        string name;\n    }\n\n    /////////////////////////////////////////////\n    // Fields\n    /////////////////////////////////////////////\n\n    address owner;\n    bool hasVoteStarted = false;\n    // Dummy Date in order to give a \"fake\" vote ending\n    // Saturday 9 February 2019 13:26:17\n    uint voteEndTimestamp = 1549718777;\n    mapping(address => Voter) voters;\n    mapping(address => Proposal) proposals;\n    address[] proposalsAddresses;\n\n\n    /////////////////////////////////////////////\n    // Modififiers\n    /////////////////////////////////////////////\n\n    // Accessible only if the caller is the owner\n    modifier onlyOwner() {\n        if (msg.sender != owner) return;\n        _;\n    }\n\n    // Accessible only if voter has not voted yet\n    modifier hasNotVotedYet(address voter) {\n        if (voters[voter].voted) return;\n        _;\n    }\n\n    // Accessible only if voter is enable to vote\n    modifier mayVote(address voter) {\n        if (hasVoteStarted == false\n        || voteEndTimestamp < now\n        || voters[voter].voted\n        || !voters[voter].canVote\n        ) return;\n        _;\n    }\n\n    // Accessible only if the proposalId is one of the\n    // possible proposals\n    modifier isOneOfPossibleProposal(address proposalAddress) {\n        if (isEmptyString(proposals[proposalAddress].name)) return;\n        _;\n    }\n\n    // Accessible only if all the proposals are in array\n    modifier arePossibleProposals(address[] memory p) {\n        if (p.length != proposalsAddresses.length) return;\n\n        for (uint8 i = 0; i < p.length; i++) {\n            // Look for unique proposals (can't vote twice for same candidate)\n            uint8 count = 0;\n            for (uint8 j = 0; j < p.length; j++) {\n                if (p[j] == p[i]) count++;\n            }\n            if (count > 1) return;\n            if (isEmptyString(proposals[p[i]].name)) return;\n        }\n        _;\n    }\n\n    // May be candidate only if vote has not started or if not already candidate\n    modifier mayBeCandidate() {\n        if (hasVoteStarted || isEmptyString(proposals[msg.sender].name) == false) return;\n        _;\n    }\n\n    /////////////////////////////////////////////\n    // Common methods\n    /////////////////////////////////////////////\n\n    // Must be remove for production because owner would be so powerful\n    function stopVote() onlyOwner public {\n        voteEndTimestamp = 0;\n        hasVoteStarted = false;\n    }\n    // Sart vote\n    function startVote() onlyOwner public {\n        hasVoteStarted = true;\n    }\n\n    function isVoteStarted() public view returns (bool) {\n        return hasVoteStarted;\n    }\n\n    function isVoteEnded() public view returns (bool) {\n        return now > voteEndTimestamp;\n    }\n\n    function isOwner() public view returns (bool) {\n        return msg.sender == owner;\n    }\n\n    function hasUserVotedYet() public view returns (bool) {\n        return voters[msg.sender].voted;\n    }\n\n    function isUserProposalYet() public view returns (bool) {\n        return !isEmptyString(proposals[msg.sender].name);\n    }\n\n    function isUserAbleToVote() public view returns (bool) {\n        return voters[msg.sender].canVote && voters[msg.sender].voted == false;\n    }\n\n    /////////////////////////////////////////////\n    // Utils methods\n    /////////////////////////////////////////////\n\n    // Getting address in String format in case of a proposal without name\n    function fromAddressToString(address x) pure public returns (string memory) {\n        bytes memory b = new bytes(20);\n        for (uint i = 0; i < 20; i++)\n            b[i] = byte(uint8(uint(x) / (2 ** (8 * (19 - i)))));\n        return string(b);\n    }\n\n    // Solidity way to know if a String is empty\n    function isEmptyString(string memory text) pure public returns (bool) {\n        return bytes(text).length == 0;\n    }\n}\n",
  "sourcePath": "/Users/thomasecalle/Development/blockchain/blockchain_vote_dapp/contracts/VoteContractInterface.sol",
  "compiler": {
    "name": "solc",
    "version": "0.5.0+commit.1d4f565a.Emscripten.clang"
  },
  "schemaVersion": "3.0.1",
  "updatedAt": "2019-01-23T19:23:07.830Z",
  "devdoc": {
    "methods": {}
  },
  "userdoc": {
    "methods": {
      "fromAddressToString(address)": {
        "notice": "//////////////////////////////////////////"
      },
      "stopVote()": {
        "notice": "//////////////////////////////////////////"
      }
    }
  }
}