{
  "contractName": "VoteContractInterface",
  "abi": [
    {
      "constant": false,
      "inputs": [
        {
          "name": "timeStamp",
          "type": "uint256"
        }
      ],
      "name": "startVoteAndSetDate",
      "outputs": [],
      "payable": false,
      "stateMutability": "nonpayable",
      "type": "function"
    },
    {
      "constant": false,
      "inputs": [],
      "name": "startVote",
      "outputs": [],
      "payable": false,
      "stateMutability": "nonpayable",
      "type": "function"
    },
    {
      "constant": true,
      "inputs": [],
      "name": "isVoteStarted",
      "outputs": [
        {
          "name": "",
          "type": "bool"
        }
      ],
      "payable": false,
      "stateMutability": "view",
      "type": "function"
    },
    {
      "constant": true,
      "inputs": [],
      "name": "isVoteEnded",
      "outputs": [
        {
          "name": "",
          "type": "bool"
        }
      ],
      "payable": false,
      "stateMutability": "view",
      "type": "function"
    },
    {
      "constant": true,
      "inputs": [],
      "name": "isOwner",
      "outputs": [
        {
          "name": "",
          "type": "bool"
        }
      ],
      "payable": false,
      "stateMutability": "view",
      "type": "function"
    },
    {
      "constant": true,
      "inputs": [
        {
          "name": "x",
          "type": "address"
        }
      ],
      "name": "fromAddressToString",
      "outputs": [
        {
          "name": "",
          "type": "string"
        }
      ],
      "payable": false,
      "stateMutability": "pure",
      "type": "function"
    },
    {
      "constant": true,
      "inputs": [
        {
          "name": "text",
          "type": "string"
        }
      ],
      "name": "isEmptyString",
      "outputs": [
        {
          "name": "",
          "type": "bool"
        }
      ],
      "payable": false,
      "stateMutability": "pure",
      "type": "function"
    }
  ],
  "bytecode": "0x608060405260008060146101000a81548160ff021916908315150217905550635c5ed4f960015534801561003257600080fd5b506105a8806100426000396000f3fe608060405260043610610083576000357c0100000000000000000000000000000000000000000000000000000000900463ffffffff1680634c0a6af0146100885780635a3e03281461009f578063789f0e3614610169578063877baa7d146101985780638f32d59b146101d3578063a45f379e14610202578063ba7faf49146102e2575b600080fd5b34801561009457600080fd5b5061009d610311565b005b3480156100ab57600080fd5b506100ee600480360360208110156100c257600080fd5b81019080803573ffffffffffffffffffffffffffffffffffffffff16906020019092919050505061038a565b6040518080602001828103825283818151815260200191508051906020019080838360005b8381101561012e578082015181840152602081019050610113565b50505050905090810190601f16801561015b5780820380516001836020036101000a031916815260200191505b509250505060405180910390f35b34801561017557600080fd5b5061017e610475565b604051808215151515815260200191505060405180910390f35b3480156101a457600080fd5b506101d1600480360360208110156101bb57600080fd5b8101908080359060200190929190505050610481565b005b3480156101df57600080fd5b506101e8610502565b604051808215151515815260200191505060405180910390f35b34801561020e57600080fd5b506102c86004803603602081101561022557600080fd5b810190808035906020019064010000000081111561024257600080fd5b82018360208201111561025457600080fd5b8035906020019184600183028401116401000000008311171561027657600080fd5b91908080601f016020809104026020016040519081016040528093929190818152602001838380828437600081840152601f19601f820116905080830192505050505050509192919290505050610559565b604051808215151515815260200191505060405180910390f35b3480156102ee57600080fd5b506102f7610566565b604051808215151515815260200191505060405180910390f35b6000809054906101000a900473ffffffffffffffffffffffffffffffffffffffff1673ffffffffffffffffffffffffffffffffffffffff163373ffffffffffffffffffffffffffffffffffffffff1614151561036c57610388565b6001600060146101000a81548160ff0219169083151502179055505b565b60608060146040519080825280601f01601f1916602001820160405280156103c15781602001600182028038833980820191505090505b50905060008090505b601481101561046b578060130360080260020a8473ffffffffffffffffffffffffffffffffffffffff168115156103fd57fe5b047f010000000000000000000000000000000000000000000000000000000000000002828281518110151561042e57fe5b9060200101907effffffffffffffffffffffffffffffffffffffffffffffffffffffffffffff1916908160001a90535080806001019150506103ca565b5080915050919050565b60006001544211905090565b6000809054906101000a900473ffffffffffffffffffffffffffffffffffffffff1673ffffffffffffffffffffffffffffffffffffffff163373ffffffffffffffffffffffffffffffffffffffff161415156104dc576104ff565b806001819055506001600060146101000a81548160ff0219169083151502179055505b50565b60008060009054906101000a900473ffffffffffffffffffffffffffffffffffffffff1673ffffffffffffffffffffffffffffffffffffffff163373ffffffffffffffffffffffffffffffffffffffff1614905090565b6000808251149050919050565b60008060149054906101000a900460ff1690509056fea165627a7a72305820543b385b970763e05c9b060ee952b806396c8e9e8da8788f6435639d8554b40c0029",
  "source": "pragma solidity >=0.5 <0.6.0;\n\n\ncontract VoteContractInterface {\n\n    /////////////////////////////////////////////\n    // Structs\n    /////////////////////////////////////////////\n\n    struct Voter {\n        uint weight;\n        bool voted;\n        address[] vote;\n        address delegate;\n        bool canVote;\n    }\n\n    struct Proposal {\n        uint voteCount;\n        string name;\n    }\n\n    /////////////////////////////////////////////\n    // Fields\n    /////////////////////////////////////////////\n\n    address owner;\n    bool hasVoteStarted = false;\n    // Dummy Date in order to give a \"fake\" vote ending\n    // Saturday 9 February 2019 13:26:17\n    uint voteEndTimestamp = 1549718777;\n    mapping(address => Voter) voters;\n    mapping(address => Proposal) proposals;\n    address[] proposalsAddresses;\n\n\n    /////////////////////////////////////////////\n    // Modififiers\n    /////////////////////////////////////////////\n\n    // Accessible only if the caller is the owner\n    modifier onlyOwner() {\n        if (msg.sender != owner) return;\n        _;\n    }\n\n    // Accessible only if voter has not voted yet\n    modifier hasNotVotedYet(address voter) {\n        if (voters[voter].voted) return;\n        _;\n    }\n\n    // Accessible only if voter is enable to vote\n    modifier mayVote(address voter) {\n        if (hasVoteStarted == false\n        || voteEndTimestamp < now\n        || voters[voter].voted\n        || !voters[voter].canVote\n        ) return;\n        _;\n    }\n\n    // Accessible only if the proposalId is one of the\n    // possible proposals\n    modifier isOneOfPossibleProposal(address proposalAddress) {\n        if (isEmptyString(proposals[proposalAddress].name)) return;\n        _;\n    }\n\n    // Accessible only if all the proposals are in array\n    modifier arePossibleProposals(address[] memory p) {\n        if (p.length != proposalsAddresses.length) return;\n\n        for (uint8 i = 0; i < p.length; i++) {\n            // Look for unique proposals (can't vote twice for same candidate)\n            uint8 count = 0;\n            for (uint8 j = 0; j < p.length; j++) {\n                if (p[j] == p[i]) count++;\n            }\n            if (count > 1) return;\n            if (isEmptyString(proposals[p[i]].name)) return;\n        }\n        _;\n    }\n\n    // May be candidate only if vote has not started or if not already candidate\n    modifier mayBeCandidate() {\n        if (hasVoteStarted || isEmptyString(proposals[msg.sender].name) == false) return;\n        _;\n    }\n\n    /////////////////////////////////////////////\n    // Common methods\n    /////////////////////////////////////////////\n\n    // This timeStamp is only on demo purpose, to show that nobody can vote after the ending date\n    // Must be remove for production because owner would be too powerful\n    function startVoteAndSetDate(uint timeStamp) onlyOwner public {\n        voteEndTimestamp = timeStamp;\n        hasVoteStarted = true;\n    }\n    // This function is the good one to keep on production\n    // It does not override already set Ending Date\n    function startVote() onlyOwner public {\n        hasVoteStarted = true;\n    }\n\n    function isVoteStarted() public view returns (bool) {\n        return hasVoteStarted;\n    }\n\n    function isVoteEnded() public view returns (bool) {\n        return now > voteEndTimestamp;\n    }\n\n    function isOwner() public view returns (bool) {\n        return msg.sender == owner;\n    }\n\n    /////////////////////////////////////////////\n    // Utils methods\n    /////////////////////////////////////////////\n\n    function fromAddressToString(address x) pure public returns (string memory) {\n        bytes memory b = new bytes(20);\n        for (uint i = 0; i < 20; i++)\n            b[i] = byte(uint8(uint(x) / (2 ** (8 * (19 - i)))));\n        return string(b);\n    }\n\n    function isEmptyString(string memory text) pure public returns (bool) {\n        return bytes(text).length == 0;\n    }\n}\n",
  "sourcePath": "/Users/thomasecalle/Development/blockchain/blockchain_vote_dapp/contracts/VoteContractInterface.sol",
  "compiler": {
    "name": "solc",
    "version": "0.5.0+commit.1d4f565a.Emscripten.clang"
  },
  "schemaVersion": "3.0.1",
  "updatedAt": "2019-01-23T12:34:21.029Z",
  "devdoc": {
    "methods": {}
  },
  "userdoc": {
    "methods": {
      "fromAddressToString(address)": {
        "notice": "//////////////////////////////////////////"
      },
      "startVoteAndSetDate(uint256)": {
        "notice": "//////////////////////////////////////////"
      }
    }
  }
}