{
  "contractName": "VoteContractInterface",
  "abi": [
    {
      "constant": false,
      "inputs": [],
      "name": "startVote",
      "outputs": [],
      "payable": false,
      "stateMutability": "nonpayable",
      "type": "function"
    },
    {
      "constant": true,
      "inputs": [],
      "name": "isVoteStarted",
      "outputs": [
        {
          "name": "",
          "type": "bool"
        }
      ],
      "payable": false,
      "stateMutability": "view",
      "type": "function"
    },
    {
      "constant": true,
      "inputs": [
        {
          "name": "x",
          "type": "address"
        }
      ],
      "name": "fromAddressToString",
      "outputs": [
        {
          "name": "",
          "type": "string"
        }
      ],
      "payable": false,
      "stateMutability": "pure",
      "type": "function"
    },
    {
      "constant": true,
      "inputs": [
        {
          "name": "text",
          "type": "string"
        }
      ],
      "name": "isEmptyString",
      "outputs": [
        {
          "name": "",
          "type": "bool"
        }
      ],
      "payable": false,
      "stateMutability": "pure",
      "type": "function"
    }
  ],
  "bytecode": "0x608060405260008060146101000a81548160ff02191690831515021790555034801561002a57600080fd5b5061039e8061003a6000396000f300608060405260043610610062576000357c0100000000000000000000000000000000000000000000000000000000900463ffffffff1680634c0a6af0146100675780635a3e03281461007e578063a45f379e1461013a578063ba7faf49146101bb575b600080fd5b34801561007357600080fd5b5061007c6101ea565b005b34801561008a57600080fd5b506100bf600480360381019080803573ffffffffffffffffffffffffffffffffffffffff169060200190929190505050610263565b6040518080602001828103825283818151815260200191508051906020019080838360005b838110156100ff5780820151818401526020810190506100e4565b50505050905090810190601f16801561012c5780820380516001836020036101000a031916815260200191505b509250505060405180910390f35b34801561014657600080fd5b506101a1600480360381019080803590602001908201803590602001908080601f016020809104026020016040519081016040528093929190818152602001838380828437820191505050505050919291929050505061034f565b604051808215151515815260200191505060405180910390f35b3480156101c757600080fd5b506101d061035c565b604051808215151515815260200191505060405180910390f35b6000809054906101000a900473ffffffffffffffffffffffffffffffffffffffff1673ffffffffffffffffffffffffffffffffffffffff163373ffffffffffffffffffffffffffffffffffffffff1614151561024557610261565b6001600060146101000a81548160ff0219169083151502179055505b565b606080600060146040519080825280601f01601f19166020018201604052801561029c5781602001602082028038833980820191505090505b509150600090505b6014811015610345578060130360080260020a8473ffffffffffffffffffffffffffffffffffffffff168115156102d757fe5b047f010000000000000000000000000000000000000000000000000000000000000002828281518110151561030857fe5b9060200101907effffffffffffffffffffffffffffffffffffffffffffffffffffffffffffff1916908160001a90535080806001019150506102a4565b8192505050919050565b6000808251149050919050565b60008060149054906101000a900460ff169050905600a165627a7a723058209fe4f9ce67776dd395ace1a5579ad0638f88a2f06bc733c0627ff06ce98284ef0029",
  "source": "pragma solidity >=0.4.22 <0.6.0;\n\n\ncontract VoteContractInterface {\n\n    /////////////////////////////////////////////\n    // Structs\n    /////////////////////////////////////////////\n\n    struct Voter {\n        uint weight;\n        bool voted;\n        address[] vote;\n        address delegate;\n        bool canVote;\n    }\n\n    struct Proposal {\n        uint voteCount;\n        string name;\n    }\n\n    /////////////////////////////////////////////\n    // Fields\n    /////////////////////////////////////////////\n\n    address owner;\n    bool hasVoteStarted = false;\n    mapping(address => Voter) voters;\n    mapping(address => Proposal) proposals;\n    address[] proposalsAddresses;\n\n\n    /////////////////////////////////////////////\n    // Modififiers\n    /////////////////////////////////////////////\n\n    // Accessible only if the caller is the owner\n    modifier onlyOwner() {\n        if (msg.sender != owner) return;\n        _;\n    }\n\n    // Accessible only if voter has not voted yet\n    modifier hasNotVotedYet(address voter) {\n        if (voters[voter].voted) return;\n        _;\n    }\n\n    // Accessible only if voter is enable to vote\n    modifier mayVote(address voter) {\n        if (hasVoteStarted == false || voters[voter].voted || !voters[voter].canVote) return;\n        _;\n    }\n\n    // Accessible only if the proposalId is one of the\n    // possible proposals\n    modifier isOneOfPossibleProposal(address proposalAddress) {\n        if (isEmptyString(proposals[proposalAddress].name)) return;\n        _;\n    }\n\n    // Accessible only if all the proposals are in array\n    modifier arePossibleProposals(address[] p) {\n        if (p.length != proposalsAddresses.length) return;\n\n        for (uint8 i = 0; i < p.length; i++) {\n            // Look for unique proposals (can't vote twice for same candidate)\n            uint8 count = 0;\n            for (uint8 j = 0; j < p.length; j++) {\n                if (p[j] == p[i]) count++;\n            }\n            if (count > 1) return;\n            if (isEmptyString(proposals[p[i]].name)) return;\n        }\n        _;\n    }\n\n    // May be candidate only if vote has not started or if not already candidate\n    modifier mayBeCandidate() {\n        if (hasVoteStarted || isEmptyString(proposals[msg.sender].name) == false) return;\n        _;\n    }\n\n    /////////////////////////////////////////////\n    // Common methods\n    /////////////////////////////////////////////\n\n    function startVote() onlyOwner public {\n        hasVoteStarted = true;\n    }\n\n    function isVoteStarted() public view returns (bool) {\n        return hasVoteStarted;\n    }\n\n    /////////////////////////////////////////////\n    // Utils methods\n    /////////////////////////////////////////////\n\n    function fromAddressToString(address x) pure public returns (string) {\n        bytes memory b = new bytes(20);\n        for (uint i = 0; i < 20; i++)\n            b[i] = byte(uint8(uint(x) / (2 ** (8 * (19 - i)))));\n        return string(b);\n    }\n\n    function isEmptyString(string text) pure public returns (bool) {\n        return bytes(text).length == 0;\n    }\n}\n",
  "sourcePath": "/Users/thomasecalle/Development/blockchain/vote-project/contracts/VoteContractInterface.sol",
  "compiler": {
    "name": "solc",
    "version": "0.4.24+commit.e67f0147.Emscripten.clang"
  },
  "schemaVersion": "2.0.1",
  "updatedAt": "2018-12-30T17:34:38.776Z"
}